:020000040800F2
:1058000000800120117E0108557C01085D7C0108A3
:10581000657C01086D7C0108757C010800000000B2
:105820000000000000000000000000007D7C010876
:105830008B7C010800000000997C0108A77C01080E
:10584000617E0108617E0108617E0108617E0108B8
:10585000617E0108617E0108617E0108617E0108A8
:10586000B37C0108617E0108C17C0108617E0108EA
:10587000617E0108617E0108617E0108617E010888
:10588000617E0108617E0108617E0108617E010878
:10589000617E0108617E0108617E0108CF7C0108FC
:1058A000617E0108617E0108DD7C0108617E0108DE
:1058B000617E0108617E0108617E0108617E010848
:1058C000617E0108617E0108617E0108617E010838
:1058D000617E0108617E0108617E0108617E010828
:1058E000F97C0108617E0108617E0108617E010882
:1058F000617E0108617E0108617E0108617E010808
:10590000617E0108617E0108617E0108617E0108F7
:10591000097D01081D7D0108317D0108617E0108B6
:10592000617E0108617E0108457D0108617E0108F4
:10593000597D0108617E0108617E0108617E0108D0
:10594000617E0108617E0108617E01086D7D0108AC
:10595000617E0108617E0108617E0108617E0108A7
:10596000617E0108617E0108617E0108617E010897
:10597000617E0108617E0108617E0108000000006F
:08598000617E0108617E01084F
:1059900010B5054C237833B9044B13B10448AFF369
:1059A00000800123237010BD98000020000000003B
:1059B0002C3B020808B5034B1BB103490348AFF366
:1059C000008008BD000000009C0000202C3B020865
:1059D00001F0FF01102A2BDB10F0070F08D010F8A0
:1059E000013B013A8B422DD010F0070F42B3F6D1A4
:1059F000F0B441EA012141EA014122F007047FF0BD
:105A000000070023F0E80256083C85EA010586EA13
:105A1000010685FA47F5A3FA87F586FA47F6A5FA4F
:105A200087F68EB9EED1F0BC01F0FF0102F007025B
:105A300032B110F8013B013A83EA010313B1F8D106
:105A40000020704701387047002D06BF35460338E7
:105A5000073815F0010F07D1013015F4807F02BF20
:105A6000013015F4C03F0130F0BC0138704700BF71
:105A700081F0004102E000BF83F0004330B54FEAFF
:105A800041044FEA430594EA050F08BF90EA020F6C
:105A90001FBF54EA000C55EA020C7FEA645C7FEAFF
:105AA000655C00F0E2804FEA5454D4EB5555B8BF22
:105AB0006D420CDD2C4480EA020281EA030382EA93
:105AC000000083EA010180EA020281EA0303362D25
:105AD00088BF30BD11F0004F4FEA01314FF4801CF8
:105AE0004CEA113102D0404261EB410113F0004F0A
:105AF0004FEA03334CEA133302D0524263EB4303C1
:105B000094EA050F00F0A780A4F10104D5F1200E5E
:105B10000DDB02FA0EFC22FA05F2801841F10001B9
:105B200003FA0EF2801843FA05F359410EE0A5F18D
:105B300020050EF1200E012A03FA0EFC28BF4CF0BE
:105B4000020C43FA05F3C01851EBE37101F0004574
:105B500007D54FF0000EDCF1000C7EEB00006EEB81
:105B60000101B1F5801F1BD3B1F5001F0CD349080B
:105B70005FEA30004FEA3C0C04F101044FEA445262
:105B800012F5800F80F09A80BCF1004F08BF5FEAE9
:105B9000500C50F1000041EB045141EA050130BDC9
:105BA0005FEA4C0C404141EB0101013C28BFB1F5DB
:105BB000801FE9D291F0000F04BF01460020B1FA26
:105BC00081F308BF2033A3F10B03B3F120020CDAF9
:105BD0000C3208DD02F1140CC2F10C0201FA0CF0D7
:105BE00021FA02F10CE002F11402D8BFC2F1200C3C
:105BF00001FA02F120FA0CFCDCBF41EA0C019040F2
:105C0000E41AA2BF01EB0451294330BD6FEA04043A
:105C10001F3C1CDA0C340EDC04F11404C4F1200225
:105C200020FA04F001FA02F340EA030021FA04F337
:105C300045EA030130BDC4F10C04C4F1200220FA8E
:105C400002F001FA04F340EA0300294630BD21FACC
:105C500004F0294630BD94F0000F83F4801306BF92
:105C600081F480110134013D4EE77FEA645C18BF86
:105C70007FEA655C29D094EA050F08BF90EA020F1D
:105C800005D054EA000C04BF1946104630BD91EA15
:105C9000030F1EBF0021002030BD5FEA545C05D118
:105CA0004000494128BF41F0004130BD14F5800457
:105CB0003CBF01F5801130BD01F0004545F0FE41CB
:105CC00041F470014FF0000030BD7FEA645C1ABF00
:105CD000194610467FEA655C1CBF0B46024650EA37
:105CE000013406BF52EA033591EA030F41F4002163
:105CF00030BD00BF90F0000F04BF0021704730B5E9
:105D00004FF4806404F132044FF000054FF00001BD
:105D100050E700BF90F0000F04BF0021704730B57E
:105D20004FF4806404F1320410F0004548BF404253
:105D30004FF000013EE700BF42004FEAE2014FEAA8
:105D400031014FEA02701FBF12F07F4393F07F4F83
:105D500081F06051704732F07F4208BF704793F086
:105D60007F4F04BF41F40021704730B54FF4607499
:105D700001F0004521F000411CE700BF50EA01029C
:105D800008BF704730B54FF000050AE050EA010245
:105D900008BF704730B511F0004502D5404261EBB5
:105DA00041014FF4806404F132045FEA915C3FF4F6
:105DB000D8AE4FF003025FEADC0C18BF03325FEA93
:105DC000DC0C18BF033202EBDC02C2F1200300FA44
:105DD00003FC20FA02F001FA03FE40EA0E0021FA69
:105DE00002F11444BDE600BF70B54FF0FF0C4CF457
:105DF000E06C1CEA11541DBF1CEA135594EA0C0F09
:105E000095EA0C0F00F0DEF82C4481EA030621EA43
:105E10004C5123EA4C5350EA013518BF52EA03357E
:105E200041F4801143F4801338D0A0FB02CE4FF030
:105E30000005E1FB02E506F00042E0FB03E54FF060
:105E40000006E1FB03569CF0000F18BF4EF0010E58
:105E5000A4F1FF04B6F5007F64F5407404D25FEA54
:105E60004E0E6D4146EB060642EAC62141EA555107
:105E70004FEAC52040EA5E504FEACE2EB4F1FD0C49
:105E800088BFBCF5E06F1ED8BEF1004F08BF5FEAC7
:105E9000500E50F1000041EB045170BD06F0004679
:105EA00046EA010140EA020081EA0301B4EB5C0426
:105EB000C2BFD4EB0C0541EA045170BD41F480111E
:105EC0004FF0000E013C00F3AB8014F1360FDEBF43
:105ED000002001F0004170BDC4F10004203C35DA1F
:105EE0000C341BDC04F11404C4F1200500FA05F3A2
:105EF00020FA04F001FA05F240EA020001F0004243
:105F000021F0004110EBD37021FA04F642EB0601B8
:105F10005EEA430E08BF20EAD37070BDC4F10C04E2
:105F2000C4F1200500FA04F320FA05F001FA04F2A6
:105F300040EA020001F0004110EBD37041F1000192
:105F40005EEA430E08BF20EAD37070BDC4F120059D
:105F500000FA05F24EEA020E20FA04F301FA05F205
:105F600043EA020321FA04F001F0004121FA04F2AD
:105F700020EA020000EBD3705EEA430E08BF20EA7D
:105F8000D37070BD94F0000F0FD101F000464000B7
:105F900041EB010111F4801F08BF013CF7D041EA39
:105FA000060195F0000F18BF704703F0004652003D
:105FB00043EB030313F4801F08BF013DF7D043EA0E
:105FC0000603704794EA0C0F0CEA135518BF95EAC4
:105FD0000C0F0CD050EA410618BF52EA4306D1D14B
:105FE00081EA030101F000414FF0000070BD50EA6A
:105FF000410606BF1046194652EA430619D094EAF4
:106000000C0F02D150EA013613D195EA0C0F05D1DD
:1060100052EA03361CBF104619460AD181EA030131
:1060200001F0004141F0FE4141F470014FF00000E9
:1060300070BD41F0FE4141F4780170BD70B54FF084
:10604000FF0C4CF4E06C1CEA11541DBF1CEA135504
:1060500094EA0C0F95EA0C0F00F0A7F8A4EB0504E6
:1060600081EA030E52EA03354FEA013100F08880DD
:106070004FEA03334FF0805545EA131343EA1263A6
:106080004FEA022245EA111545EA10654FEA00265B
:106090000EF000419D4208BF964244F1FD0404F514
:1060A000407402D25B084FEA3202B61A65EB030570
:1060B0005B084FEA32024FF480104FF4002CB6EB2D
:1060C000020E75EB030E22BFB61A754640EA0C00AD
:1060D0005B084FEA3202B6EB020E75EB030E22BFED
:1060E000B61A754640EA5C005B084FEA3202B6EB2E
:1060F000020E75EB030E22BFB61A754640EA9C00ED
:106100005B084FEA3202B6EB020E75EB030E22BFBC
:10611000B61A754640EADC0055EA060E18D04FEA7A
:10612000051545EA16754FEA06164FEAC30343EA1A
:1061300052734FEAC2025FEA1C1CC0D111F4801FE7
:106140000BD141EA00014FF000004FF0004CB6E7E0
:1061500011F4801F04BF01430020B4F1FD0C88BF7F
:10616000BCF5E06F3FF6AFAEB5EB030C04BFB6EB8A
:10617000020C5FEA500C50F1000041EB045170BD7D
:106180000EF0004E4EEA113114EB5C04C2BFD4EBAA
:106190000C0541EA045170BD41F480114FF0000E2E
:1061A000013C90E645EA060E8DE60CEA135594EAAA
:1061B0000C0F08BF95EA0C0F3FF43BAF94EA0C0FAD
:1061C0000AD150EA01347FF434AF95EA0C0F7FF422
:1061D00025AF104619462CE795EA0C0F06D152EA76
:1061E00003353FF4FDAE1046194622E750EA41065A
:1061F00018BF52EA43067FF4C5AE50EA41047FF46B
:106200000DAF52EA43057FF4EBAE12E74FF0FF3CCF
:1062100006E000BF4FF0010C02E000BF4FF0010CA0
:106220004DF804CD4FEA410C7FEA6C5C4FEA430C19
:1062300018BF7FEA6C5C1BD001B050EA410C0CBF68
:1062400052EA430C91EA030F02BF90EA020F0020CA
:10625000704710F1000F91EA030F58BF994208BF31
:1062600090422CBFD8176FEAE37040F001007047EE
:106270004FEA410C7FEA6C5C02D150EA013C07D145
:106280004FEA430C7FEA6C5CD6D152EA033CD3D090
:106290005DF8040B704700BF8446104662468C468A
:1062A0001946634600E000BF01B5FFF7B7FF0028BD
:1062B00048BF10F1000F01BD4DF808EDFFF7F4FFE6
:1062C0000CBF012000205DF808FB00BF4DF808ED71
:1062D000FFF7EAFF34BF012000205DF808FB00BF94
:1062E0004DF808EDFFF7E0FF94BF012000205DF8B6
:1062F00008FB00BF4DF808EDFFF7CEFF94BF01206B
:1063000000205DF808FB00BF4DF808EDFFF7C4FF63
:1063100034BF012000205DF808FB00BF4FEA410CAC
:106320007FEA6C5C02D150EA013C0AD14FEA430C8F
:106330007FEA6C5C02D152EA033C02D14FF00000CC
:1063400070474FF0010070474FEA410212F500120A
:1063500015D211D56FF47873B3EB625212D94FEAAC
:10636000C12343F0004343EA505311F0004F23FA96
:1063700002F018BF404270474FF00000704750EAEB
:10638000013005D111F0004008BF6FF000407047A8
:106390004FF00000704700BF4FEA4102B2F1E04306
:1063A00024BFB3F5001CDCF1FE5C0DD901F0004CFC
:1063B0004FEAC0024CEA5070B2F1004F40EB83004C
:1063C00008BF20F00100704711F0804F21D113F178
:1063D0003872BCBF01F00040704741F480114FEAB1
:1063E0005252C2F11802C2F1200C10FA0CF320FA3A
:1063F00002F018BF40F001004FEAC1234FEAD32357
:1064000003FA0CFC40EA0C0023FA02F34FEA4303C0
:10641000CCE77FEA625307D150EA01331EBF4FF049
:10642000FE4040F44000704701F0004040F0FE4064
:1064300040F40000704700BF53B94AB9002908BFB3
:1064400000281CBF4FF0FF314FF0FF3000F088B93B
:10645000ADF1080C6DE904CE00F006F8DDF804E0BB
:10646000DDE9022304B070472DE9F047089D8E4610
:1064700004468846002B4AD18A42174662D9B2FAAE
:1064800082F64EB1C6F1200301FA06F820FA03F3B2
:10649000B74043EA0808B4404FEA174E1FFA87FC9A
:1064A000B8FBFEF1230C0EFB118843EA084301FB05
:1064B0000CF29A4209D9FB1801F1FF3080F0EA8012
:1064C0009A4240F2E78002393B449A1AA3B2B2FBE7
:1064D000FEF00EFB102243EA024300FB0CFC9C453D
:1064E00009D9FB1800F1FF3280F0D6809C4540F2BC
:1064F000D3803B44023840EA0140A3EB0C03002167
:106500001DB1F3400022C5E90032BDE8F0878B429F
:1065100005D90DB1C5E9000100210846F5E7B3FA38
:1065200083F1002946D1734502D3824200F20581EE
:10653000841A6EEB030201209046002DE5D0C5E9D8
:106540000048E2E7002A00F09080B2FA82F6002EBE
:1065500040F0A4808A1A030C4FEA174E80B2BCB2F6
:106560000121B2FBFEFC0EFB1C2243EA024304FBAA
:106570000CF29A4207D9FB180CF1FF3802D29A426A
:1065800000F2E080C4469B1AB3FBFEF20EFB12330E
:1065900040EA034302FB04F49C4207D9FB1802F1D2
:1065A000FF3002D29C4200F2CA8002461B1B42EA24
:1065B0000C40A5E7C1F120068B4022FA06F71F43E5
:1065C0000EFA01F420FA06F32EFA06FE4FEA1749F6
:1065D000234300FA01F81FFA87FCBEFBF9F01C0CFC
:1065E00009FB10EE44EA0E4400FB0CFEA64502FA3D
:1065F00001F209D93C1900F1FF3A80F09C80A645D0
:1066000040F2998002383C44A4EB0E041FFA83FE4A
:10661000B4FBF9F309FB13444EEA044403FB0CFCFE
:10662000A44508D93C1903F1FF3E80F08280A445BF
:106630007FD9023B3C4443EA0040A4EB0C04A0FB9E
:1066400002EC64457346E14662D35FD05DB1B8EBBE
:10665000030264EB090404FA06F622FA01F31E436E
:10666000CC40C5E9006400214FE7B1FBF2FC010C0E
:1066700041EA0E4180B240EA01423B4638463C4680
:10668000B846BE462026B1FBF7F1A2EB080241EA6C
:106690000C4166E7014618E710462CE7C6F12002D8
:1066A0002EFA02F3B740B14020FA02F24FEA174E39
:1066B0000A43B3FBFEF8BCB20EFB1833110C41EADF
:1066C000034108FB04F9B04089454FEA104380B20A
:1066D0003ED9791808F1FF3C01D289451FD8A1EBBA
:1066E0000901B1FBFEF909FB04F80EFB191192B286
:1066F00042EA0142424529D2BA1809F1FF31C4D217
:106700004245C2D2A9F102013A44BEE7F0459DD20A
:10671000BEEB02036CEB070C0138E14696E7A7EBF2
:1067200009094944A8F1020CB1FBFEF909FB04F880
:10673000DBE773467FE7504666E70846FDE63B44E5
:10674000023A33E7ACF1020C3B441CE749469CE7B4
:10675000A1EB0901C446B1FBFEF909FB04F8C4E74B
:10676000704700BF80B500AFAD4B93F83D30022BB2
:1067700055D1012001F026F810F0BEFD022011F0E5
:10678000E5FB002000F0D6FF052011F0DFFB012023
:1067900000F0D0FF012011F0D9FB002000F0CAFF6B
:1067A000022011F0D3FB0DF0A1F808F04FFD9C4B37
:1067B00000221A649A4B1B6C18460DF0B5F803467C
:1067C000974A53640DF0AEF9954B002283F82920C7
:1067D000944B0022A3F8E421934B1B78012B01D1A9
:1067E00001F0B8F8904B01221A70002000F080FFF1
:1067F000322011F0ABFB002000F09CFF322011F0A2
:10680000A5FB00F0ADF9894B00221A70844B0022E1
:1068100083F82820824B032283F83D20FEE0804B42
:1068200093F83D30012B40F08A80012001F098FC64
:106830007E4B1B78002B62D101F0F6F8784B0122D9
:1068400083F82820764B012283F82920754B0022FB
:10685000A3F8E421734B03F5805303F21C734FF04C
:1068600000021A606F4B03F5805303F5E4634FF0A9
:1068700000021A606B4B03F5805303F224734FF050
:1068800000021A60674B0022A3F8E821654B03F56C
:10689000805303F5E5634FF000021A60614B03F586
:1068A000805303F22C734FF000021A605D4B03F526
:1068B000805303F5E6634FF000021A60594B002243
:1068C000A3F8E621574B4FF00002C3F8C021554B07
:1068D0004FF00002C3F8C421524B4FF00002C3F83E
:1068E000C8214F4B002283F82A20514B01221A70F5
:1068F000504BF0221A804D4B01221A7015E04B4B81
:106900001B78012B0AD1012001F0CAF8494B1B88E2
:10691000002B0AD1454B02221A7006E0434B1B782C
:10692000022B02D1012001F0BBF8012001F0D6F9C1
:10693000012001F0A5F9012000F0EEF86EE0384BDF
:1069400093F83D30002B69D1012011F0FFFA0020AF
:1069500000F0F0FE012011F0F9FA012000F0EAFE4B
:10696000012011F0F3FA002000F0E4FE0A2011F0FB
:10697000EDFA002000F026FF0FF04CFF022011F08E
:10698000E5FA00F0EDF8012011F0E0FA264B0122C3
:106990001A7001200CF086FE01200CF0ADFE0120E3
:1069A00008F028FB012008F0FDFB022011F0CEFAD0
:1069B000012000F09DFE322011F0C8FA184B4FF470
:1069C00000421A64164B1B6C18460CF0ADFF0346D0
:1069D000134A53640DF0A6F800F046FF104B002256
:1069E00083F82A200E4B002283F82B200F4B002225
:1069F0001A700A2011F0AAFA012000F09BFE012073
:106A000011F0A4FA5A2011F0A1FA01200FF064FB52
:106A100000F082F9024B012283F83D2000BF80BDC7
:106A2000B40000203C1E00204D3800204C380020CF
:106A3000783900204A38002080B500AF012000F0EE
:106A4000C1FE1F491F480FF031FB1F4A1C491F4858
:106A500001F06AFB00F084F81D491B480CF070FD42
:106A60001C4B00221A701A4B002283F82B2000F0D6
:106A700035F808F0EBFB0CF039FF022011F066FA54
:106A8000012000F035FE322011F060FA00F0C6FE61
:106A9000022011F05BFA0DF045F8022011F056FAD1
:106AA0000D4B00221A7001200FF016FB084B01223B
:106AB00083F82820064B022283F83D2000BF80BDCA
:106AC000FC01002050380020581A00209038002087
:106AD000B40000204D3800204C38002080B500AFB5
:106AE0004FF6FF71084814F0C9F93C21074817F028
:106AF0004BF83C21064817F047F83C21054817F0B1
:106B000043F800BF80BD00BF143D00204C3D002075
:106B1000983D0020303E002080B582B000AF034693
:106B2000FB71FB79012B01D0012313E00B4B93F890
:106B30004431012B0DD1002000F0FCFD0A2011F0A2
:106B400005FA064B002283F83D20044B002283F80F
:106B50004421002318460837BD4680BDB4000020FC
:106B600080B500AF3B4B002283F84421394B012212
:106B70009A84384B002283F82920364B0022DA848D
:106B8000344B002283F82820324B00221A64314B08
:106B90001B6C18460CF0C8FE03462E4A5364FF20B7
:106BA0000DF060F82C4B2D4A1A602B4B2C4A5A6082
:106BB000294B2C4A9A60284B4FF00002DA60264B92
:106BC0004FF000021A61284B03F58053012283F82D
:106BD0003A27254B03F58053012283F83B27224BAC
:106BE00003F580530022A3F83E271F4B03F5805383
:106BF000002283F840271C4B03F58053002283F8C2
:106C00003C271A4B01221A72184B012283F82C20C0
:106C1000164B012283F85020144B012283F8742074
:106C2000134B03229A74124B032283F82620104B35
:106C3000032283F83A200E4B032283F84E2000F003
:106C40006BF800F057FA00F0D3FA00F013F800BF29
:106C500080BD00BFB40000204019002066660641D8
:106C60006666E640CDCCEC40FC010020A81A00206E
:106C7000581A002080B483B000AF0023FB713EE0BF
:106C8000FB79244A4FF4AA7101FB03F31344033345
:106C900002221A70FB791F4A4FF4AA7101FB03F319
:106CA0001344043300221A70FB791A4A4FF4AA7174
:106CB00001FB03F3134400221A70FB79154A4FF4C9
:106CC000AA7101FB03F31344013301221A70FB790B
:106CD000104A4FF4AA7101FB03F31344023301225B
:106CE0001A70FB790B4A4FF4AA7101FB03F31344AA
:106CF00003F5A87301221A70FB790133FB71FB794C
:106D0000012BBDD900BF00BF0C37BD465DF8047B29
:106D1000704700BFA035002080B483B000AF0023CF
:106D2000FB71F4E0FB79B84A0C335B001344642236
:106D30005A80FB79B44A08335B00134400225A801E
:106D4000FA79B24913469B0013449B000B440C3361
:106D5000B4221A80FA79AD4913469B0013449B0074
:106D60000B440A3300221A80FA79A84913469B0083
:106D700013449B000B44023300221A80FA79A34982
:106D800013469B0013449B000B44043300221A80DB
:106D9000FB799F4A9B0113443A33AA221A80FB795C
:106DA0009B4A9B0113443C3300221A80FB79984A8A
:106DB0009B0113443E3364221A80FB79944A9B0161
:106DC0001344103300221A80FB79914A9B0113442B
:106DD000063300221A80FB798D4A9B01134432331B
:106DE00000221A70FB798A4A9B0113443333002234
:106DF0001A70FB79864A9B01134401221A70FB79B1
:106E0000834A9B011344013301221A70FB79804AA3
:106E10009B011344343300221A70FB797C4A9B0196
:106E20001344363300221A80FB79794A9B011344BC
:106E3000033301221A70FB79754A9B011344023314
:106E400001221A70FB79724A9B01134414336422A5
:106E50001A80FB796E4A9B011344123300221A8078
:106E6000FB796B4A9B0113440A33AA221A80FB79EF
:106E7000674A9B011344083300221A80FA79654956
:106E80001346DB0013449B000B44203340F22122C5
:106E90001A80FA795F491346DB0013449B000B44C8
:106EA000083301221A70FA795A491346DB00134459
:106EB0009B000B44103300221A60FA79554913469F
:106EC000DB0013449B000B44093301221A70FB7949
:106ED0004D4A3C339B00134400225A60FA794D49D5
:106EE0001346DB0013449B000B4414334FF00002A5
:106EF0001A60FA7947491346DB0013449B000B44A0
:106F000018334FF000021A60FB790133FB71FB79F3
:106F1000032B7FF607AF0023BB71DEE0BB793E4A4F
:106F20004FF4AA7101FB03F3134403F59473002299
:106F30001A70BB79384A4FF4AA7101FB03F313446A
:106F400003F59A7300221A60BB79334A4FF4AA7191
:106F500001FB03F3134403F5A07300221A80BB79ED
:106F60002D4A4FF4AA7101FB03F3134403F5A173F7
:106F700000221A80BB79284A4FF4AA7101FB03F35F
:106F8000134403F5967300221A60BB79224A4FF42A
:106F9000AA7101FB03F3134400221A70BB791E4A45
:106FA0004FF4AA7101FB03F31344013301221A7059
:106FB000BB79194A4FF4AA7101FB03F3134402335E
:106FC00001221A70BB79144A4FF4AA7101FB03F332
:106FD0001344033302221A70BB790F4A4FF4AA718B
:106FE00001FB03F31344043300221A70BB790A4AED
:106FF0004FF4AA7101FB03F3134403F5A8730122B4
:107000001A700023FB7162E0B4000020581A0020BF
:1070100058190020A81A0020A0350020BA79FB7961
:1070200033494FF4AA7000FB02F20A4413440533BB
:1070300000221A70BA79FB792D494FF4AA7000FB2F
:1070400002F20A441344073300221A70BA79FB791A
:107050002749AA2000FB02F213448433002221F8BE
:107060001320BA79FB792249AA2000FB02F21344CB
:1070700084335B000B4400229A80BA79F9791C486A
:1070800013469B0013441A0113440B44443300225B
:1070900040F82320BA79F979154813469B00134428
:1070A0001A0113440B444633002240F82320BA79D6
:1070B000F9790F4813469B0013441A0113440B44FB
:1070C0004833002240F82320FB790133FB71FB7920
:1070D000012BA3D9BB790133BB71BB79012B7FF69F
:1070E0001DAF00BF00BF0C37BD465DF8047B704785
:1070F000A035002080B400AF3A4B3B4A1A60394BB0
:10710000394A5A60374B384A9A60364B364ADA6009
:10711000344B354A1A61334B334A5A61314B93ED44
:10712000017A304BD3ED007A37EE677AF0EE006AE1
:10713000C7EE267A2B4BC3ED067A2A4B93ED037AE2
:10714000284BD3ED027A37EE677AF0EE006AC7EE8D
:10715000267A244BC3ED077A224B93ED057A214B17
:10716000D3ED047A37EE677AF0EE006AC7EE267A3E
:107170001C4BC3ED087A1B4B93ED017A194BD3EDF1
:10718000007A37EE277ADFED196AC6EE877A154B5B
:10719000C3ED097A134B93ED037A124BD3ED027AC8
:1071A00037EE277ADFED116AC6EE877A0D4BC3ED15
:1071B0000A7A0C4B93ED057A0A4BD3ED047A37EE3D
:1071C000277ADFED0A6AC6EE877A064BC3ED0B7AA3
:1071D000044B002283F8602000BFBD465DF8047BAD
:1071E000704700BFD81D0020C3F51C41C3F59C416A
:1071F00080B588B000AF0023FB7714E18F4B7B6133
:107200008F4BFB604FF000037B60FB7F8D4A542166
:1072100001FB03F31344103305221A608A4BBB6150
:10722000874B3B61894BBB60FB7F864A542101FB46
:1072300003F3134403F5B07305221A600023BB77F0
:10724000BCE0BB7FFA7F7F49542000FB02F24FF481
:10725000A87000FB03F313440B44343301221A706B
:10726000BB7FFA7F7749542000FB02F24FF4A870ED
:1072700000FB03F313440B44363300221A70BB7F28
:10728000FA7F7049542000FB02F24FF4A87000FB13
:1072900003F313440B44353300221A70BB7FFA7F8B
:1072A0006849542000FB02F24FF4A87000FB03F37E
:1072B00013440B440C3301221A70BB7FFA7F6149DF
:1072C000542000FB02F24FF4A87000FB03F31344B8
:1072D0000B4420334FF000021A60BB7FFA7F5949FC
:1072E000542000FB02F24FF4A87000FB03F3134498
:1072F0000B4424334FF000021A60BB7FFA7F5149E0
:10730000542000FB02F24FF4A87000FB03F3134477
:107310000B4428334FF000021A60BB7FFA7F4949C3
:10732000542000FB02F24FF4A87000FB03F3134457
:107330000B4440334FF000021A60BB7FFA7F414993
:10734000542000FB02F24FF4A87000FB03F3134437
:107350000B4444334FF000021A60BB7FFA7F394977
:10736000542000FB02F24FF4A87000FB03F3134417
:107370000B443C334FF000021A60BB7FFA7F314967
:10738000542000FB02F24FF4A87000FB03F31344F7
:107390000B4430332E4A1A60BB7FFA7F29495420B0
:1073A00000FB02F24FF4A87000FB03F313440B44FC
:1073B0002C33284A1A60BB7F0133BB77BB7F012B7C
:1073C0007FF63FAFFB7F542202FB03F31D4A1344B9
:1073D000D7ED057A97ED037AD7ED016AB0EE661A1C
:1073E000F0EE470AB0EE670A1946012000F086FD6C
:1073F000FB7F542202FB03F303F5A873114A1344E5
:10740000D7ED067A97ED047AD7ED026AB0EE661AE8
:10741000F0EE470AB0EE670A1946012000F06EFD53
:10742000FB7F0133FB77FB7F032B7FF6E7AE002367
:107430007B7741E10023FB77DAE000BF0000B0403A
:10744000295C8F3F381B0020713D1A4014AEC73EA7
:1074500000409C4500401C457B7FFA7F9B4954209F
:1074600000FB02F24FF4AA7000FB03F313440B4439
:107470001C3301221A607B7FFA7F9449542000FB61
:1074800002F24FF4AA7000FB03F313440B444033A1
:1074900001221A707B7FFA7F8C49542000FB02F294
:1074A0004FF4AA7000FB03F313440B444233012250
:1074B0001A707B7FFA7F8549542000FB02F24FF45B
:1074C000AA7000FB03F313440B44413301221A70EA
:1074D0007B7FFA7F7D49542000FB02F24FF4AA70B3
:1074E00000FB03F313440B44183301221A707B7F13
:1074F000FA7F7649542000FB02F24FF4AA7000FB99
:1075000003F313440B442C334FF000021A607B7FCB
:10751000FA7F6E49542000FB02F24FF4AA7000FB80
:1075200003F313440B4430334FF000021A607B7FA7
:10753000FA7F6649542000FB02F24FF4AA7000FB68
:1075400003F313440B4434334FF000021A607B7F83
:10755000FA7F5E49542000FB02F24FF4AA7000FB50
:1075600003F313440B444C334FF000021A607B7F4B
:10757000FA7F5649542000FB02F24FF4AA7000FB38
:1075800003F313440B4450334FF000021A607B7F27
:10759000FA7F4E49542000FB02F24FF4AA7000FB20
:1075A00003F313440B4448334FF000021A607B7F0F
:1075B000FA7F4649542000FB02F24FF4AA7000FB08
:1075C00003F313440B443C33414A1A607B7FFA7F38
:1075D0003E49542000FB02F24FF4AA7000FB03F373
:1075E00013440B4438333B4A1A60FB7F0133FB776B
:1075F000FB7F022B7FF630AF7B7F344A4FF4AA71BA
:1076000001FB03F313442433334A1A607B7F2F4A70
:107610004FF4AA7101FB03F3134420334FF000022F
:107620001A607B7F294A4FF4AA7101FB03F31344CC
:1076300028332A4A1A607B7F244A4FF4AA7101FB3F
:1076400003F313447833264A1A607B7F1F4A4FF4B2
:10765000AA7101FB03F3134474334FF000021A6064
:107660007B7F1A4A4FF4AA7101FB03F313447C3366
:107670001C4A1A607B7F154A4FF4AA7101FB03F381
:107680001344CC33184A1A607B7F104A4FF4AA7116
:1076900001FB03F31344C833144A1A607B7F0B4A7F
:1076A0004FF4AA7101FB03F31344D0334FF07A5225
:1076B0001A607B7F01337B777B7F012B7FF6BAAE2D
:1076C00000BF00BF2037BD4680BD00BFA0350020F1
:1076D00000409C4500401C450AD7A33C0AD7233DE7
:1076E000EC51C0409A9909400000B6410AD7A33D29
:1076F00080B582B000AF0346FB71FB79002B09D047
:107700000B4B01221A70012210214FF0904012F011
:1077100059FB08E0064B00221A70002210214FF09E
:10772000904012F04FFB00BF0837BD4680BD00BF40
:10773000B400002080B582B000AF0346FB71FB7936
:10774000002B09D00B4B01225A7000224FF48051BC
:10775000094812F037FB08E0064B00225A7001225C
:107760004FF48051044812F02DFB00BF0837BD468E
:1077700080BD00BFB40000200004004880B483B086
:1077800000AF03460A46FB711346BB80FB79002B12
:1077900009D00B4B01229A70094B0022DA80084A6B
:1077A000BB88138105E0064B00229A70044B00222F
:1077B000DA8000BF0C37BD465DF8047B704700BF20
:1077C000B400002080B582B000AF0346FB71FB79A6
:1077D000002B0ED00F4B0122DA7001224FF4004132
:1077E0000D4812F0EFFA4FF47A710120FFF7C6FF4F
:1077F0000CE0084B0022DA7000224FF400410648EA
:1078000012F0E0FA00210020FFF7B8FF00BF0837B0
:10781000BD4680BDB40000200008004880B500AF20
:107820000EF0B8FF022010F091FB0EF0E3F90220F9
:1078300010F08CFB00200EF047FA012010F086FBC0
:107840000EF066FA022010F081FB0FF033FD0120EC
:1078500010F07CFB034B1B78012B01D100F098F852
:1078600000BF80BD4D38002080B588B002AF0EF05B
:1078700091FF022010F06AFB0EF0BCF9022010F01C
:1078800065FB00200EF020FA0123019320230093D2
:107890002423294A002100200EF07CFB03212D2007
:1078A0000EF060FB254A012306CA25480EF034FB82
:1078B0003C237B617B69234A82FB03129210DB1716
:1078C000D21A204B83FB02139910D317C91A0B4607
:1078D0009B000B445B00D31A3B617A69194B83FB15
:1078E00002139910D317C91A0B469B000B445B0077
:1078F000D31AFB603846FB683A6913491BF0DCF881
:10790000182144200EF02EFB104A3846012306CAE7
:107910000EF002FB0EF0FCF90A2010F017FB0FF03E
:10792000C9FC0B4B1B78012B01D100F031F800BFD3
:107930001837BD4680BD00BF7C3B020830000020E8
:10794000483B020867666666503B02082800002034
:107950004D38002080B500AF0EF01CFF022010F063
:10796000F5FA00200EF0B0F9012010F0EFFA0EF059
:10797000CFF9032010F0EAFA0FF09CFC034B1B78C0
:10798000012B01D100F02AF800BF80BD4D38002046
:1079900080B582B000AF4FF480733B600E4B012284
:1079A0005A7100237B600BE0386800F083FB3B6872
:1079B00028333B60642010F0C9FA7B6801337B6098
:1079C0007B68052BF0DD00F0A5FB034B00225A710C
:1079D00000BF0837BD4680BDB400002080B582B02E
:1079E00000AF4FF400733B600E4B01225A7100232D
:1079F0007B600BE0386800F05DFB3B68323B3B602E
:107A0000642010F0A3FA7B6801337B607B68052B50
:107A1000F0DD00F07FFB034B00225A7100BF0837F6
:107A2000BD4680BDB400002080B500AF0DF08EFFD4
:107A30000CF01EFC044B002283F82920642010F077
:107A400085FA00BF80BD00BFB400002080B483B0C1
:107A500000AF0346FB71FB79012B12D10F4B5B8CFE
:107A600001339AB20D4B5A840C4B5A8C0B4B9B8CA6
:107A70009A420CD3094B0122DA84084B00225A8423
:107A800005E0064B0022DA84044B00225A8400BF32
:107A90000C37BD465DF8047B704700BFB400002082
:107AA00080B582B000AF0346FB71FB79012B21D179
:107AB000134BDB8C012B1DD1114B0022DA84104BB0
:107AC00093F82830012B15D10D4B93F82930012B59
:107AD00010D10C4B1B88002B05D00A4B1B88013B97
:107AE0009AB2084B1A80012000F00EF80CF0B4FC9A
:107AF000002300E0012318460837BD4680BD00BFC3
:107B0000B40000204A38002080B483B000AF0346A0
:107B1000FB71FB79012B01D00123A3E0544B93F8B7
:107B20006030012B40F09D80514B93ED017A504B1A
:107B3000D3ED007A37EE677AF0EE006AC7EE267A68
:107B40004B4BC3ED067A4A4B93ED037A484BD3ED8A
:107B5000027A37EE677AF0EE006AC7EE267A444B77
:107B6000C3ED077A424B93ED057A414BD3ED047A8E
:107B700037EE677AF0EE006AC7EE267A3C4BC3ED2B
:107B8000087A3B4B93ED017A394BD3ED007A37EE0F
:107B9000277ADFED386AC6EE877A354BC3ED097A6E
:107BA000334B93ED037A324BD3ED027A37EE277ADB
:107BB000DFED306AC6EE877A2D4BC3ED0A7A2C4B87
:107BC00093ED057A2A4BD3ED047A37EE277ADFED71
:107BD000296AC6EE877A264BC3ED0B7A244B002226
:107BE00083F86020244B0022A3F8E421224B03F504
:107BF000805303F21C734FF000021A601E4B03F512
:107C0000805303F5E4634FF000021A601A4B03F54A
:107C1000805303F224734FF000021A60164B0022C7
:107C2000A3F8E821144B03F5805303F5E5634FF007
:107C300000021A60104B03F5805303F22C734FF0CF
:107C400000021A600C4B03F5805303F5E6634FF016
:107C500000021A60084B0022A3F8E621074B01221C
:107C60001A70002318460C37BD465DF8047B704738
:107C7000D81D0020C3F59C413C1E0020783900200F
:107C800080B582B000AF0346FB71FB79012B01D0B8
:107C900001231BE00F4B1B78012B16D10D4B00224B
:107CA0001A70012007F07CF901200BF051FD0A4BFE
:107CB00093F82A30012B04D1074B012283F82B20A3
:107CC00003E0054B002283F82B20002318460837D9
:107CD000BD4680BD48380020B400002080B586B085
:107CE00000AF0346FB71FB79012B40F0C780664B68
:107CF00093F82C30012B40F0C180634B002283F8B5
:107D00002C20624810F07AFC0121604810F030FD10
:107D10005E4810F005FE03465B4A13635A4B1B6B2B
:107D200007EE903AF8EE677A9FED597A67EE877A18
:107D30009FED587A77EE877AC7ED057A97ED057A49
:107D4000DFED556AC7EE267A4F4BC3ED0D7A534BE4
:107D5000D3ED007A9FED507A67EE877AC7ED047A0B
:107D60004E4BD3ED017A9FED4C7A67EE877AC7EDE3
:107D7000037A97ED057AD7ED037A77EE676A97ED88
:107D8000047AD7ED037A37EE677AC6EE877A9FEDED
:107D9000447A67EE877AC7ED027A9FED411ADFEDEC
:107DA000410A97ED020A00F07FF8F0EE407A3B4B73
:107DB000C3ED047A344B93ED0D7A384BD3ED027A50
:107DC000B4EEE77AF1EE10FA32D52F4BB3F8483023
:107DD00001339AB22C4BA3F848202B4BB3F8483010
:107DE000032B49D9284B0022A3F84820264B1B6CB3
:107DF000B3F57F0F0DD1244B00221A64224B1B6C6C
:107E000018460BF091FD03461F4A53640BF08AFE9F
:107E100032E01D4B4FF47F021A641B4B1B6C18465B
:107E20000BF082FD0346184A53640BF07BFE23E0FF
:107E3000154BB3F8483001339AB2134BA3F84820DE
:107E4000114BB3F84830032B16D90F4B0022A3F87F
:107E500048200D4B1B6CB3F5004F0DD00A4B4FF46F
:107E600000421A64084B1B6C18460BF05DFD03467C
:107E7000054A53640BF056FE002300E00123184628
:107E80001837BD4680BD00BFB4000020083C00206C
:107E90003333533ACDCC4C3D3D82FB3D401900205D
:107EA0000000C8420000000080B485B000AF87ED3C
:107EB000030AC7ED020A87ED011A97ED037AD7EDA1
:107EC000027AB4EEE77AF1EE10FA01D5BB680BE066
:107ED00097ED037AD7ED017AB4EEE77AF1EE10FA76
:107EE00001DD7B6800E0FB6807EE903AB0EE670AC0
:107EF0001437BD465DF8047B7047000080B588B03C
:107F000000AF0346396187ED030AC7ED020A87ED2A
:107F1000011AFB75FB7D012B01D0012351E0D7ED48
:107F2000037AF5EEC07AF1EE10FA0DD4D7ED027AAD
:107F3000F5EEC07AF1EE10FA06D4D7ED017AF5EE3F
:107F4000C07AF1EE10FA01D502233AE03B69FA68F3
:107F50009A613B69BA685A613B697A68DA613B6940
:107F60001B691846FDF7C6FE4FF00002174BFEF7DF
:107F700065F802460B46C7E906233B69FA685A6072
:107F8000B868FDF7D9FED7E90623FDF72DFF0246B5
:107F90000B4610461946FEF7FFF902463B691A6088
:107FA0007868FDF7C9FED7E90623FEF747F80246D1
:107FB0000B4610461946FEF7EFF902463B699A60F8
:107FC000002318462037BD4680BD00BF00408F40CB
:107FD00080B483B000AF0346FB71FB79012B12D153
:107FE000104BDB8D01339AB20E4BDA850D4BDB8DD6
:107FF000182B06D90B4B0022DA850A4B012283F895
:108000002C20002307E0074B002283F82C20054B8F
:108010000022DA85012318460C37BD465DF8047B43
:10802000704700BFB400002080B582B000AF786018
:108030007B681A681B4B1B689A420BD101200AF01F
:10804000B9FD0120FFF7C4FF0120FFF7FFFC164B2D
:1080500001221A707B681A68144B1B689A421DD162
:1080600001200EF051F801200CF022F8104B93F88B
:108070002A30012B07D10E4B93F82B30012B02D164
:10808000012007F013F90A4B93F83D30002B02D181
:10809000012000F065F801200EF09AF800BF0837C3
:1080A000BD4680BDC83E002048380020AC3F0020BF
:1080B000B400002080B582B000AF78600021124883
:1080C00015F026FC104B1B6850229A620F4A7B6801
:1080D00092FBF3F20C4B1B68DA620C4A7B6892FB52
:1080E000F3F31A46084BDA60094A7B6892FBF3F215
:1080F000054B1B685A630021034815F003FB00BFC2
:108100000837BD4680BD00BF603F002040420F00E1
:1081100020A1070080B500AF0021024815F0F8FB50
:1081200000BF80BD603F002080B485B000AFF86024
:10813000B9607A60074AFB681360074ABB6813603E
:10814000064A7B68136000BF1437BD465DF8047BA8
:10815000704700BFE8380020EC380020F0380020DD
:1081600080B582B000AF0346FB71FB79012B44D18F
:10817000244B1B6893F8992B224B1B6893F8983B70
:108180009A423AD01F4B1A681E4B1B6892F8982BE4
:1081900083F89A2B1B4B1B681A4A126892F89A2B89
:1081A00002F5B46233F81220164B1B68D2B283F882
:1081B0009B2B144B1A68134B1B6893F89A3B0133A3
:1081C0009B011A440F4B1B6893F89B3B19461046C2
:1081D00000F01AF80B4B1B6893F8982B0132D2B2BF
:1081E00083F8982B074B1B6893F8983B2B2B04D9EB
:1081F000044B1B68002283F8982B0023184608378D
:10820000BD4680BDEC38002080B584B000AF7860FA
:108210000B467B8084237B730023FB7314E0FB7B82
:108220007A6813441B787B2B0BD1FB7B01331A46F6
:108230007B6813441B787A7B9A4202D1FB7BBB7329
:1082400005E0FB7B0133FB73FB7B032BE7D9FB7B57
:10825000022B02D9012300F080BCBB7B9BB27A8841
:10826000D31A9AB2024B1A800023FB7311E000BFAD
:10827000E4380020FA7BBB7B13441A467B681A441F
:108280000A4B1968FB7B0B4412781A70FB7B013395
:10829000FB73FB7B9AB2064B1B889A42EAD3034BD3
:1082A0001B6802331B78013B04E000BFE838002064
:1082B000E4380020FE2B00F24E8401A252F823F095
:1082C000F38600081787000837880008058700082C
:1082D000578B000825880008578B0008578B00082B
:1082E000578B0008578B0008BD86000829870008B7
:1082F0003B8700084D870008578B0008578B000804
:108300005F87000883870008A78700089587000813
:10831000498800085B880008578B0008018800081E
:10832000CF860008E186000813880008B987000896
:10833000CB87000871870008578B0008578B00080F
:108340006D8800087F880008D9880008EB8800083D
:1083500091880008A3880008B5880008C78800082D
:10836000FD8800080F89000821890008338900086A
:10837000578B0008578B0008578B0008578B000855
:10838000578B0008578B0008578B0008578B000845
:10839000578B0008578B0008578B0008578B000835
:1083A000578B0008578B0008578B0008578B000825
:1083B000578B0008578B0008578B0008578B000815
:1083C000DD870008EF8700084D8900085F890008F5
:1083D000718900088389000895890008A789000829
:1083E000B9890008578B0008578B0008578B000885
:1083F000578B0008578B0008578B0008578B0008D5
:10840000CB890008DD890008EF890008018A00088F
:10841000138A0008258A0008378A0008498A00085C
:108420005B8A00086D8A00087F8A0008918A00082C
:10843000A38A0008B58A0008C78A0008578B00087D
:10844000578B0008578B0008578B0008578B000884
:10845000578B0008578B0008578B0008578B000874
:10846000578B0008578B0008578B0008578B000864
:10847000578B0008578B0008578B0008578B000854
:1086A000458B0008338B0008218B0008EB8A0008FB
:1086B000FD8A0008D98A00080F8B0008A14B1B68AF
:1086C000A14A12881146184601F068FE44E29D4B0B
:1086D0001B689D4A12881146184601F0C1FE3BE214
:1086E000984B1B68984A12881146184601F0E6FE1E
:1086F00032E2944B1B68944A12881146184600F0E7
:10870000D1FC29E28F4B1B688F4A1288114618460C
:1087100000F01CFD20E28B4B1B688B4A128811462F
:10872000184600F09DFA17E2864B1B68864A1288AD
:108730001146184600F0E4FA0EE2824B1B68824AAA
:1087400012881146184600F073FB05E27D4B1B684A
:108750007D4A12881146184600F026FCFCE1794B50
:108760001B68794A12881146184600F0EFFDF3E1C4
:10877000744B1B68744A12881146184600F000FFBB
:10878000EAE1704B1B68704A12881146184600F0E7
:10879000A9FFE1E16B4B1B686B4A12881146184632
:1087A00001F024F9D8E1674B1B68674A128811462B
:1087B000184601F0C7F9CFE1624B1B68624A128884
:1087C0001146184601F0AEFAC6E15E4B1B685E4AE0
:1087D00012881146184601F0F1FABDE1594B1B68A9
:1087E000594A12881146184601F022FBB4E1554B54
:1087F0001B68554A12881146184601F063FBABE12D
:10880000504B1B68504A12881146184601F0A8FBCD
:10881000A2E14C4B1B684C4A12881146184600F0E6
:1088200057FB99E1474B1B68474A12881146184687
:1088300001F0ECFB90E1434B1B68434A1288114660
:10884000184601F05DFD87E13E4B1B683E4A1288E9
:108850001146184601F06CFC7EE13A4B1B683A4A1F
:1088600012881146184601F0D9FC75E1354B1B689A
:10887000354A12881146184601F034FE6CE1314B3E
:108880001B68314A12881146184601F063FE63E105
:108890002C4B1B682C4A12881146184601F084FEA6
:1088A0005AE1284B1B68284A12881146184601F0E5
:1088B000D5FE51E1234B1B68234A12881146184606
:1088C00001F026FF48E11F4B1B681F4A1288114622
:1088D000184602F037F93FE11A4B1B681A4A128812
:1088E0001146184601F06EFF36E1164B1B68164A1A
:1088F00012881146184602F0D9F82DE1114B1B6879
:10890000114A12881146184602F054F924E10D4B21
:108910001B680D4A12881146184602F073F81BE1D5
:10892000084B1B68084A12881146184602F012F8D4
:1089300012E1044B1B68044A12881146184601F0E4
:108940009BFF09E1E8380020E4380020854B1B68D4
:10895000854A12881146184602F032FAFCE0814B33
:108960001B68814A12881146184602F0DDFAF3E0CE
:108970007C4B1B687C4A12881146184602F050FB5B
:10898000EAE0784B1B68784A12881146184602F0D4
:10899000C3FBE1E0734B1B68734A1288114618460B
:1089A00002F036FCD8E06F4B1B686F4A1288114604
:1089B000184602F0C9FCCFE06A4B1B686A4A12886D
:1089C0001146184602F050FDC6E0664B1B68664A29
:1089D00012881146184602F0B1FDBDE0614B1B68DC
:1089E000614A12881146184602F030FEB4E05D4B31
:1089F0001B685D4A12881146184602F043FFABE03F
:108A0000584B1B68584A12881146184603F020F844
:108A1000A2E0544B1B68544A12881146184603F0D2
:108A2000C5F899E04F4B1B684F4A1288114618460B
:108A300003F0D8F990E04B4B1B684B4A1288114663
:108A4000184603F0DDF987E0464B1B68464A12885A
:108A50001146184603F0C0FA7EE0424B1B68424ABA
:108A600012881146184603F0E1FB75E03D4B1B6888
:108A70003D4A12881146184603F06EFD6CE0394BF2
:108A80001B68394A12881146184603F0C1FE63E09C
:108A9000344B1B68344A12881146184604F068F8B3
:108AA0005AE0304B1B68304A12881146184604F0D1
:108AB00073F951E02B4B1B682B4A1288114618465C
:108AC00004F0E4F948E0274B1B68274A1288114656
:108AD000184604F0D1FA3FE0224B1B68224A128864
:108AE0001146184602F0C8F836E01E4B1B681E4AB5
:108AF00012881146184602F0F5F82DE0194B1B6854
:108B0000194A12881146184602F0CAF824E0154B9B
:108B10001B68154A12881146184602F08FF81BE0B0
:108B2000104B1B68104A12881146184602F0FAF8DA
:108B300012E00C4B1B680C4A12881146184602F0D2
:108B400005F909E0074B1B68074A128811461846C9
:108B500002F022F900E000BF002318461037BD469E
:108B600080BD00BFE8380020E438002080B586B022
:108B700000AF0346FB717B233B7284237B72FB793E
:108B8000BB720023FB7272B600BF07F10803042218
:108B9000194601200DF09CFB62B600BF0023184669
:108BA0001837BD4680BD80B586B000AF03460A4683
:108BB000FB711346BB717B233B7284237B72FB7971
:108BC000BB72BB79FB7272B600BF07F108030422C7
:108BD000194601200DF07CFB62B600BF0023184649
:108BE0001837BD4680BD80B594B000AF03463960EC
:108BF000FB711346BB807B233B7384237B73FB7920
:108C0000BB730023A7F84E3010E0B7F84E303A6837
:108C10001A44B7F84E300333127850333B4403F80C
:108C2000442CB7F84E300133A7F84E30B7F84E2039
:108C3000BB889A42E9D3BB880333A7F84E3072B69B
:108C400000BFB7F84E2007F10C03194601200DF0C4
:108C50003FFB62B600BF002318465037BD4680BDBB
:108C600080B584B000AF78600B467B807B680333AF
:108C70001B78012B02D10023FB731DE07B680333BB
:108C80001B78022B02D10123FB7315E07B680333B1
:108C90001B78042B02D10223FB730DE07B680333A6
:108CA0001B78082B02D10323FB7305E0022102206D
:108CB000FFF779FF01231CE07B6804331B78012B4D
:108CC00012D87B6804331B78BB73FA7B0B491346BD
:108CD000DB0013449B000B440933BA7B1A7002205B
:108CE000FFF744FF002304E002210220FFF75BFFAF
:108CF000012318461037BD4680BD00BFA81A0020CA
:108D000080B584B000AF78600B467B807B6803330E
:108D10001B78032B05D902210C20FFF744FF012308
:108D200079E07B68DB78FB737B685A793C4B1A707F
:108D30007B689A793A4B5A70394B1B88002B05D1C6
:108D400002210C20FFF72FFF012364E0FA7B344B54
:108D5000188834491346DB0013449B000B4420332E
:108D600002461A807B68DA792D4B1A707B681A7A72
:108D70002B4B5A702A4B1B88002B05D102210C204B
:108D8000FFF711FF012346E0FB7B254A1188264AA5
:108D90009B0113443A330A461A80FB7B224A9B010B
:108DA00013443A331B881946FB7B1F4A9B0113442B
:108DB0003C331B8801FB03F31C4A82FB0312521154
:108DC000DB17D21AFB7B91B2174A9B01134408337D
:108DD0000A461A80FB7B144A9B0113443A331B88D2
:108DE0001946FB7B104A9B0113443E331B8801FB51
:108DF00003F30E4A82FB03125211DB17D21AFB7BDC
:108E000091B2094A9B0113440A330A461A800C2086
:108E1000FFF7ACFE002318461037BD4680BD00BFEB
:108E2000D0380020A81A0020581900201F85EB51C7
:108E300080B586B000AF78600B467B800023FB7561
:108E400027E0FB7D5B00BB75BB7D03331A467B6867
:108E500013441A781C4B1A70BB7D04331A467B6886
:108E600013441A78184B5A70174B1B88002B05D1E6
:108E700002210D20FFF797FE012320E0FB7D124A1F
:108E800012885B0018333B4423F80C2CFB7D013324
:108E9000FB75FB7D032BD4D9BA890C4B1A84FA8954
:108EA0000A4BA3F844203A8A084BA3F868207A8A30
:108EB000064BA3F88C200D20FFF758FE0023184620
:108EC0001837BD4680BD00BFD0380020A81A00204A
:108ED00080B586B000AF78600B467B807B880B2B1B
:108EE00005D001211B20FFF75EFE022352E07B68C4
:108EF000DB78BB757B681B797B750023FB7526E0EF
:108F0000FB7D5B003B753B7D05331A467B68134454
:108F10001A78224B1A703B7D06331A467B6813443D
:108F20001A781E4B5A701D4B1B8807EE903AB8EE0C
:108F3000677AFB7DDFED1A6AC7EE267A9B0018334D
:108F40003B44103BC3ED007AFB7D0133FB75FB7D99
:108F5000022BD5D97B7DBA7D542101FB02F24FF45F
:108F6000A87101FB03F313440E4A1344D7ED027AB0
:108F700097ED037AD7ED046AB0EE661AF0EE470A71
:108F8000B0EE670A19460120FEF7B8FF1B20FFF775
:108F9000EDFD002318461837BD4680BDD0380020AF
:108FA0000000C842381B002080B58AB000AF78604E
:108FB0000B467B807B881D2B05D001210E20FFF7FF
:108FC000F2FD022366E0002387F8273044E097F89B
:108FD00027309B0087F8263097F8263005331A464D
:108FE0007B6813441A782D4B1A7097F82630063395
:108FF0001A467B6813441A78284B5A7097F8263023
:1090000007331A467B6813441A78244B9A7097F8F2
:10901000263008331A467B6813441A781F4BDA70DF
:109020001E4BD3ED007AF5EE407AF1EE10FA05D141
:1090300002210E20FFF7B7FD01232BE097F8273020
:10904000164A12689B0028333B441C3B1A6097F871
:109050002730013387F8273097F82730052BB6D90A
:10906000FB680F4A13603B690D4A53607B690C4AE9
:109070009360BB690A4AD360FB69094A13613B6A82
:10908000074A5361064B012283F860200E20FFF748
:109090006DFD002318462837BD4680BDE03800200E
:1090A000D81D002080B584B000AF78600B467B806F
:1090B0007B6803331B78002B08D07B68DB78FB735D
:1090C0007B6804331B78012B0ED805E002210120B8
:1090D000FFF769FD012333E07B6804331B78BB7322
:1090E000FB7B012B0AD105E002210120FFF75BFD8C
:1090F000012325E0144ABB7B13701DE0FB7B022B90
:1091000004D1114ABB7B82F8403015E0FB7B042B75
:1091100004D10D4ABB7B82F880300DE0FB7B082B2D
:1091200004D1094ABB7B82F8C03005E0022101204E
:10913000FFF739FD012303E00120FFF717FD0023AE
:1091400018461037BD4680BD5819002080B584B040
:1091500000AF78600B467B807B6803331B78002B65
:109160001CD07B68DB78FB737B681A79744B1A70B0
:109170007B685A79724B5A70714B1B88BB817B6834
:109180009A796F4B1A707B68DA796D4B5A706C4B19
:109190001B887B81FB7B012B2DD105E00221042064
:1091A000FFF701FD0123C6E0664ABB899387654A44
:1091B0007B89D387634B5B8F1A46624B9B8F02FB85
:1091C00003F3614A82FB03125211DB17D31A9AB2DE
:1091D0005C4B1A815B4B5B8F1A465A4BDB8F02FB51
:1091E00003F3594A82FB03125211DB17D31A9AB2C6
:1091F000544B5A819BE0FB7B022B2ED1514ABB89F9
:10920000A2F87C304F4A7B89A2F87E304D4BB3F8F0
:109210007A301A464B4BB3F87C3002FB03F34A4AD0
:1092200082FB03125211DB17D31A9AB2454BA3F8F3
:109230004820444BB3F87A301A46424BB3F87E309C
:1092400002FB03F3404A82FB03125211DB17D31ACD
:109250009AB23C4BA3F84A2069E0FB7B042B2ED149
:10926000384ABB89A2F8BC30364A7B89A2F8BE30A6
:10927000344BB3F8BA301A46324BB3F8BC3002FB69
:1092800003F3314A82FB03125211DB17D31A9AB24D
:109290002C4BA3F888202B4BB3F8BA301A46294B35
:1092A000B3F8BE3002FB03F3274A82FB03125211CC
:1092B000DB17D31A9AB2234BA3F88A2037E0FB7B43
:1092C000082B2ED11F4ABB89A2F8FC301D4A7B898E
:1092D000A2F8FE301B4BB3F8FA301A46194BB3F81C
:1092E000FC3002FB03F3184A82FB03125211DB1716
:1092F000D31A9AB2134BA3F8C820124BB3F8FA3022
:109300001A46104BB3F8FE3002FB03F30E4A82FB01
:1093100003125211DB17D31A9AB20A4BA3F8CA20D0
:1093200005E002210420FFF73EFC012303E00420B6
:10933000FFF71CFC002318461037BD4680BD00BF58
:10934000D0380020581900201F85EB5180B584B01B
:1093500000AF78600B467B807B6803331B78002B63
:1093600012D07B68DB78FB737B685A79814B1A706B
:109370007B689A797F4B5A707E4B1B88BB81B7F90B
:109380000C30642B0BDC05E002211120FFF70BFCF5
:109390000123EAE0B7F90C3013F1640F05DA02217A
:1093A0001120FFF700FC0123DFE0FB7B012B2DD117
:1093B000714B1B79002B0DD1704B0122DA706F4B72
:1093C000002283F834206D4ABB8913826B4B022242
:1093D0009A70C6E0684BDB79012B11D0664B1B7A83
:1093E000012B0DD0654B0122DA70644B002283F80B
:1093F0003420624ABB891382604B02229A70B0E02B
:1094000003211120FFF7CFFB0123AEE0FB7B022BF2
:1094100033D1594B1B79002B10D1584B012283F8C3
:109420004320564B002283F87420544ABB89A2F88B
:109430005030524B022283F8422092E04E4BDB79AF
:10944000022B14D04C4B1B7A022B10D04B4B012219
:1094500083F84320494B002283F87420474ABB8994
:10946000A2F85030454B022283F8422079E00321D4
:109470001120FFF798FB012377E0FB7B042B33D10E
:109480003D4B1B79002B10D13C4B012283F88320EC
:109490003A4B002283F8B420384ABB89A2F89030B6
:1094A000364B022283F882205BE0334BDB79032BBF
:1094B00014D0314B1B7A032B10D0304B012283F890
:1094C00083202E4B002283F8B4202C4ABB89A2F8BB
:1094D00090302A4B022283F8822042E0032111209F
:1094E000FFF761FB012340E0FB7B082B33D1224BCC
:1094F0001B79002B10D1214B012283F8C3201F4B75
:10950000002283F8F4201D4ABB89A2F8D0301B4BFF
:10951000022283F8C22024E0174BDB79042B14D0FD
:10952000154B1B7A042B10D0144B012283F8C32057
:10953000124B002283F8F420104ABB89A2F8D030E5
:109540000E4B022283F8C2200BE003211120FFF70B
:109550002AFB012309E002211120FFF724FB01234C
:1095600003E01120FFF702FB002318461037BD4629
:1095700080BD00BFD4380020A0350020581900203D
:1095800080B586B000AF78600B467B800023FB750A
:109590002FE0FB7D5B00BB75BB7D04331A467B6807
:1095A00013441A784C4B1A70BB7D05331A467B68FE
:1095B00013441A78484B5A70474BB3F90030642B68
:1095C00005DC454BB3F9003013F1640F05DA0221D5
:1095D0001E20FFF7E8FA012379E0FB7D3E4AB2F94D
:1095E00000205B0018333B4423F80C2CFB7D013337
:1095F000FB75FB7D032BCCD90023FB7560E0374B5B
:109600001B79002B22D1FB7DFA7D5B0018333B4494
:1096100033F90C0C324993010B44103302461A8083
:10962000FB7D2F4A9B011344033301221A70FB7DFB
:109630002B4A9B011344343300221A70FB7D284AC5
:109640009B011344023302221A7036E0234BDB796C
:109650001A46FB7D01339A4229D0204B1B7A1A46C9
:10966000FB7D01339A4222D0FB7DFA7D5B001833EB
:109670003B4433F90C0C1A4993010B441033024656
:109680001A80FB7D164A9B011344033301221A7092
:10969000FB7D134A9B011344343300221A70FB7D77
:1096A0000F4A9B011344023302221A7005E0032182
:1096B0001E20FFF778FA012309E0FB7D0133FB75DB
:1096C000FB7D032B9BD91E20FFF750FA0023184681
:1096D0001837BD4680BD00BFD4380020A03500201B
:1096E0005819002080B584B000AF78600B467B80AD
:1096F0007B88072B05D001211220FFF754FA0223A3
:1097000067E17B6803331B78002B11D07B68DB7823
:10971000FB737B685A79B14B1A707B689A79AF4BAF
:109720005A70AE4B1B88BB81FB7B012B4ED105E0F1
:1097300002211220FFF737FA01234AE1A84B1B79D7
:10974000002B1AD1A74B0222DA70A64B02229A7084
:10975000A44B002283F83420A24B5B8F1A46B7F942
:109760000C3002FB03F3A04A82FB03125211DB17F9
:10977000D31A1AB29B4BDA8027E1994BDB79012B84
:109780001ED0974B1B7A012B1AD0964B0222DA700F
:10979000944B02229A70934B002283F83420914B11
:1097A0005B8F1A46B7F90C3002FB03F38E4A82FB3B
:1097B00003125211DB17D31A1AB28A4BDA8004E172
:1097C00003211220FFF7EFF9012302E1FB7B022BBB
:1097D0004FD1834B1B79002B1ED1824B022283F881
:1097E0004320804B022283F842207E4B002283F8E4
:1097F00074207C4BB3F87A301A46B7F90C3002FB70
:1098000003F3794A82FB03125211DB17D31A1AB2FF
:10981000744BA3F84620D8E0714BDB79022B22D0A1
:109820006F4B1B7A022B1ED06E4B022283F8432013
:109830006C4B022283F842206A4B002283F874208A
:10984000684BB3F87A301A46B7F90C3002FB03F3D1
:10985000654A82FB03125211DB17D31A1AB2614B0D
:10986000A3F84620B1E003211220FFF79CF9012361
:10987000AFE0FB7B042B4FD1594B1B79002B1ED142
:10988000584B022283F88320564B022283F8822011
:10989000544B002283F8B420524BB3F8BA301A4626
:1098A000B7F90C3002FB03F34F4A82FB031252114B
:1098B000DB17D31A1AB24B4BA3F8862085E0484B2E
:1098C000DB79032B22D0464B1B7A032B1ED0454B52
:1098D000022283F88320434B022283F88220414BEB
:1098E000002283F8B4203F4BB3F8BA301A46B7F9D8
:1098F0000C3002FB03F33C4A82FB03125211DB17CC
:10990000D31A1AB2374BA3F886205EE00321122047
:10991000FFF749F901235CE0FB7B082B4FD1304B6B
:109920001B79002B1ED12F4B022283F8C3202D4B15
:10993000022283F8C2202B4B002283F8F420294B0B
:10994000B3F8FA301A46B7F90C3002FB03F3264A93
:1099500082FB03125211DB17D31A1AB2214BA3F860
:10996000C62032E01E4BDB79042B22D01C4B1B7A25
:10997000042B1ED01B4B022283F8C320194B02225A
:1099800083F8C220174B002283F8F420154BB3F85C
:10999000FA301A46B7F90C3002FB03F3124A82FB85
:1099A00003125211DB17D31A1AB20E4BA3F8C620BA
:1099B0000BE003211220FFF7F6F8012309E0022152
:1099C0001220FFF7F0F8012303E01220FFF7CEF892
:1099D000002318461037BD4680BD00BFD438002094
:1099E000A0350020581900201F85EB5180B584B0A8
:1099F00000AF78600B467B800023FB738DE0FB7B20
:109A00005B00BB73BB7B04331A467B6813441A7834
:109A1000484B1A70BB7B05331A467B6813441A788F
:109A2000444B5A70444B1B79002B2FD1FB7B434A8C
:109A30009B011344033302221A70FB7B3F4A9B01B4
:109A400013443A331B881A463A4BB3F9003002FBF1
:109A500003F33B4A82FB03125211DB17D21AFB7B42
:109A600011B2364A9B01134406330A461A80FB7B27
:109A7000324A9B011344023302221A70FB7B2F4AA5
:109A80009B011344343300221A7043E02A4BDB79E4
:109A90001A46FB7B01339A4236D0274B1B7A1A4673
:109AA000FB7B01339A422FD0FB7B244A9B0113445A
:109AB000033302221A70FB7B204A9B0113443A3382
:109AC0001B881A461B4BB3F9003002FB03F31C4AF8
:109AD00082FB03125211DB17D21AFB7B11B2174A19
:109AE0009B01134406330A461A80FB7B134A9B01F1
:109AF0001344023302221A70FB7B104A9B01134469
:109B0000343300221A7005E003211420FFF74BF8CC
:109B100001230AE0FB7B0133FB73FB7B032B7FF606
:109B20006EAF1420FFF722F8002318461037BD4609
:109B300080BD00BFD4380020A03500205819002077
:109B40001F85EB51B0B586B000AF78600B467B80C7
:109B50007B6803331B78012B02D10023FB751DE0CA
:109B60007B6803331B78022B02D10123FB7515E0C0
:109B70007B6803331B78042B02D10223FB750DE0B5
:109B80007B6803331B78082B02D10323FB7505E0A8
:109B900002211320FFF707F80123B1E07B681A794F
:109BA000594B1A707B685A79574B5A70564B1B8821
:109BB000BB82B7F91430B42202FB03F3534A82FB91
:109BC00003125211DB17D31ABB827B689A79504B70
:109BD0001A707B68DA794E4B5A704D4B1B887B822A
:109BE0007B8A1846FCF796F84FF00002494BFCF7C9
:109BF00025FA02460B4614461D46FA7D4649134691
:109C0000DB0013449B000B4420331B881846FCF7F1
:109C100081F802460B4620462946FCF7E5F8024645
:109C20000B4610461946FCF78FFB0346FB60FA7D96
:109C300039491346DB0013449B000B4410331B6867
:109C4000BB60FB7D354A9B0113440C33BA8A1A80F2
:109C5000FB7D324A9B011344343300221A70FB7D92
:109C60002F4A542101FB03F3134403F2871300220C
:109C70001A70B7F91430002B1ADAFA7DB968FB684C
:109C8000C91A25481346DB0013449B0003440C33D8
:109C90001960BB8A5B429BB2FA7D18B21E4913461B
:109CA000DB0013449B000B44223302461A8015E06C
:109CB000FA7DB968FB68194417481346DB00134462
:109CC0009B0003440C331960FA7D13491346DB00F3
:109CD00013449B000B442233BA8A1A80FB7D0F4A3F
:109CE0009B011344033303221A70FB7D0B4A9B0133
:109CF0001344023302221A701320FEF737FF0023A9
:109D000018461837BD46B0BDD43800201F85EB512A
:109D1000D038002000807640A81A00205819002072
:109D2000381B002080B584B000AF78600B467B8084
:109D30007B6803331B78012B02D10023FB731DE0EA
:109D40007B6803331B78022B02D10123FB7315E0E0
:109D50007B6803331B78042B02D10223FB730DE0D5
:109D60007B6803331B78082B02D10323FB7305E0C8
:109D700002211C20FEF717FF012318E0FB7B0E4A8F
:109D80009B011344323301221A70FB7B0A4A9B0168
:109D90001344343301221A70FB7B074A9B0113449E
:109DA000023301221A701C20FEF7E0FE0023184641
:109DB0001037BD4680BD00BF5819002080B584B063
:109DC00000AF78600B467B807B6803331B78012BE8
:109DD00005D002211D20FEF7E6FE012321E000232D
:109DE000FB7317E0FB7B114A9B01134432330122C2
:109DF0001A70FB7B0D4A9B011344343301221A7005
:109E0000FB7B0A4A9B011344023301221A70FB7B3D
:109E10000133FB73FB7B032BE4D91D20FEF7A6FE69
:109E2000002318461037BD4680BD00BF58190020DA
:109E300080B584B000AF78600B467B807B680333CD
:109E40001B78012B02D10023FB731DE07B680333D9
:109E50001B78022B02D10123FB7315E07B680333CF
:109E60001B78042B02D10223FB730DE07B680333C4
:109E70001B78082B02D10323FB7305E0022141204C
:109E8000FEF791FE012317E07B6804331B78012B5A
:109E900005D902214120FEF786FE01230CE0FB7B61
:109EA0007A681179064A9B01134434330A461A70C2
:109EB0004120FEF75BFE002318461037BD4680BDEB
:109EC0005819002080B584B000AF78600B467B80C5
:109ED0007B6803331B78012B05D002214220FEF75B
:109EE00062FE012335E00023FB731BE0FB7B0433A0
:109EF0001A467B6813441B78012B05D902214120A7
:109F0000FEF751FE012324E0FB7B04331A467B68F5
:109F10001A44FB7B127810333B4403F8082CFB7B7C
:109F20000133FB73FB7B032BE0D93A7A0B4B83F8AD
:109F300034207A7A094B83F87420BA7A074B83F875
:109F4000B420FA7A054B83F8F4204220FEF70EFE87
:109F5000002318461037BD4680BD00BF58190020A9
:109F600080B584B000AF78600B467B807B6803339C
:109F70001B78002B06D07B68DB78FB73FB7B012B07
:109F80000ED105E002211820FEF70DFE012335E079
:109F90001C4B012283F830201B4B01221A7229E04E
:109FA000FB7B022B08D1174B012283F87020164B44
:109FB000012283F82C201DE0FB7B042B08D1114BE0
:109FC000012283F8B020104B012283F8502011E0C9
:109FD000FB7B082B08D10B4B012283F8F0200A4BA6
:109FE000012283F8742005E002211820FEF7DBFD32
:109FF000012303E01820FEF7B9FD002318461037AF
:10A00000BD4680BD58190020A81A002080B584B034
:10A0100000AF78600B467B807B6803331B78002B96
:10A020001DD07B68DB78FB737B681A793E4B1A7016
:10A030007B685A793C4B5A703B4B1B88BB817B68D1
:10A040009A79394B1A707B68DA79374B5A70364BEC
:10A050001B887B81BB89B3F5B47F0CD905E0022155
:10A060000620FEF7A0FD012359E002210620FEF79D
:10A070009AFD012353E07B89B3F5B47F05D9022112
:10A080000620FEF790FD012349E0BA897B899A42B8
:10A0900005D302210620FEF786FD01233FE0FB7B6E
:10A0A000012B08D1214B1B68BA895A811F4B1B68B1
:10A0B0007A899A812FE0FB7B022B0AD11B4B1B680C
:10A0C0001433BA895A81194B1B6814337A899A81DF
:10A0D00021E0FB7B042B0AD1144B1B682833BA897F
:10A0E0005A81124B1B6828337A899A8113E0FB7BD3
:10A0F000082B0AD10D4B1B683C33BA895A810B4B94
:10A100001B683C337A899A8105E002210620FEF71C
:10A110004AFD012303E00620FEF728FD0023184630
:10A120001037BD4680BD00BFD0380020F038002079
:10A1300080B584B000AF78600B467B807B680333CA
:10A140001B78012B02D10023FB731DE07B680333D6
:10A150001B78022B02D10123FB7315E07B680333CC
:10A160001B78042B02D10223FB730DE07B680333C1
:10A170001B78082B02D10323FB7305E00221152075
:10A18000FEF711FD012340E07B681A79214B1A701C
:10A190007B685A791F4B5A701E4B1B88BB811E4B24
:10A1A0001968FA7B13469B0013449B000B445B89A0
:10A1B000BA899A420BD3184B1968FA7B13469B0055
:10A1C00013449B000B449B89BA899A4205D902210A
:10A1D0001520FEF7E8FC012317E00F4B1968FA7B06
:10A1E00013469B0013449B000B44BA895A800A4BC8
:10A1F0001968FA7B13469B0013449B000B44012211
:10A200009A741520FEF7B2FC002318461037BD469D
:10A2100080BD00BFD0380020F038002080B586B067
:10A2200000AF78600B467B800023FB8245E0FB8A11
:10A230005B00BB82BB8A03331A467B6813441A78DF
:10A240002D4B1A70BB8A04331A467B6813441A7864
:10A25000294B5A70FB8A284A12885B0018333B440A
:10A2600023F80C2CFB8A5B0018333B4433F80C1C9E
:10A27000224B1868FA8A13469B0013449B00034440
:10A280005B89994210D3FB8A5B0018333B4433F857
:10A290000C1C1A4B1868FA8A13469B0013449B0047
:10A2A00003449B89994205D902211620FEF77BFCC5
:10A2B00001231CE0FB8A0133FB82FB8A032BB6D906
:10A2C0000E4B1B68BA895A800C4B1B681433FA89F1
:10A2D0005A800A4B1B6828333A8A5A80074B1B68FE
:10A2E0003C337A8A5A801620FEF740FC0023184639
:10A2F0001837BD4680BD00BFD0380020F0380020A0
:10A3000080B584B000AF78600B467B807B680333F8
:10A310001B78012B02D10023FB731DE07B68033304
:10A320001B78022B02D10123FB7315E07B680333FA
:10A330001B78042B02D10223FB730DE07B680333EF
:10A340001B78082B02D10323FB7305E002210320B5
:10A35000FEF729FC01231AE07B6804331B78012BEC
:10A3600010D87B68191D0C4B1868FA7B13469B00AC
:10A3700013449B0003440A781A700320FEF7F6FB8F
:10A38000002304E002210320FEF70DFC0123184600
:10A390001037BD4680BD00BFF038002080B586B0C4
:10A3A00000AF78600B467B807B6803331B7807EE39
:10A3B000903AB8EEE77AF2EE046AC7EE267AC7ED75
:10A3C000057A7B6804331B7807EE903AB8EEE77A9B
:10A3D000F2EE046AC7EE267AC7ED047A7B6805338D
:10A3E0001B7807EE903AB8EEE77AF2EE046AC7EE11
:10A3F000267AC7ED037AD7ED057AB3EE087AF4EE44
:10A40000C77AF1EE10FA11DCD7ED047AB3EE087AD0
:10A41000F4EEC77AF1EE10FA08DCD7ED037AB3EE6A
:10A42000087AF4EEC77AF1EE10FA05DD02210B206E
:10A43000FEF7B9FB01230CE0084A7B691360074A69
:10A440003B695360054AFB6893600B20FEF78EFB67
:10A45000002318461837BD4680BD00BF40190020B4
:10A4600080B584B000AF78600B467B807B68DB787A
:10A47000FB737B681B793B737B685B797B737B68C1
:10A480009B79BB7307F10C03184609F0C9FA034620
:10A49000094A5364084B5B6C074A1364FB7B1846FC
:10A4A00009F0E0FB09F03EFB1920FEF75FFB0023FB
:10A4B00018461037BD4680BDB400002080B582B07C
:10A4C00000AF78600B467B80054B01221A701A2082
:10A4D000FEF74CFB002318460837BD4680BD00BF81
:10A4E0007839002080B586B000AF78600B467B805D
:10A4F0007B88042B01D0012326E07B6803331B7883
:10A50000012B04D07B6803331B78002B17D17B23EE
:10A510003B7284237B722123BB727B6803331B78DD
:10A5200001330B4A13449B7B3B7207F10803012262
:10A5300019462120FEF757FB00BF002304E002214B
:10A540002120FEF730FB012318461837BD4680BD99
:10A55000B400002080B588B000AF78600B467B80E7
:10A560007B233B7384237B732223BB730D4BDB7BE9
:10A57000FB770C4B1B7C5BB25B005AB297F91F3028
:10A5800013435BB2FB77FB7FFB7307F10C030422E1
:10A59000194601200BF09CFE002318462037BD46CB
:10A5A00080BD00BFB400002080B586B000AF7860E9
:10A5B0000B467B807B233B7284237B722523BB72FB
:10A5C000234BD3ED707A9FED237A67EE877AFDEE09
:10A5D000E77A17EE903A1AB21F4B1A801E4B1B787F
:10A5E000FB721D4B5B783B73194BD3ED717A9FED7A
:10A5F000197A67EE877AFDEEE77A17EE903A1AB28B
:10A60000154B1A80144B1B787B73134B5B78BB7311
:10A610000F4BD3ED727A9FED0F7A67EE877AFDEEDE
:10A62000E77A17EE903A1AB20B4B1A800A4B1B7856
:10A63000FB73094B5B783B7407F108030922194649
:10A6400001200BF045FE002318461837BD4680BD9B
:10A650003C1E00200000C842D438002080B586B0DF
:10A6600000AF78600B467B807B233B7284237B7238
:10A670002623BB72234BD3ED767A9FED237A67EEC8
:10A68000877AFDEEE77A17EE903A1AB21F4B1A80DE
:10A690001E4B1B78FB721D4B5B783B73194BD3ED44
:10A6A000777A9FED197A67EE877AFDEEE77A17EEF3
:10A6B000903A1AB2154B1A80144B1B787B73134BCC
:10A6C0005B78BB730F4BD3ED787A9FED0F7A67EE13
:10A6D000877AFDEEE77A17EE903A1AB20B4B1A80A2
:10A6E0000A4B1B78FB73094B5B783B7407F108033B
:10A6F0000922194601200BF0EBFD002318461837FC
:10A70000BD4680BD3C1E00200000C842D438002059
:10A7100080B586B000AF78600B467B807B233B72B0
:10A7200084237B722723BB72234BD3ED737A9FED77
:10A73000237A67EE877AFDEEE77A17EE903A1AB23F
:10A740001F4B1A801E4B1B78FB721D4B5B783B73B3
:10A75000194BD3ED747A9FED197A67EE877AFDEE87
:10A76000E77A17EE903A1AB2154B1A80144B1B7801
:10A770007B73134B5B78BB730F4BD3ED757A9FEDF7
:10A780000F7A67EE877AFDEEE77A17EE903A1AB203
:10A790000B4B1A800A4B1B78FB73094B5B783B749D
:10A7A00007F108030922194601200BF091FD00234F
:10A7B00018461837BD4680BD3C1E002000007A4474
:10A7C000D438002080B584B000AF78600B467B8021
:10A7D0007B6803331B78032B0AD87B68DB78FB7319
:10A7E000FB7B224A9B0113441B78012B12D105E00D
:10A7F00002212320FEF7D7F9012332E0FA7B1C491E
:10A800001346DB0013449B000B4410331B68194AAA
:10A81000136012E0FB7B154A9B0113441B78002B4D
:10A820000BD1FA7B12491346DB0013449B000B4407
:10A8300010331B685B420F4A13600E4B1B783B7250
:10A840000C4B5B787B720B4B9B78BB72094BDB78B4
:10A85000FB7207F10803042219462320FEF7C3F90F
:10A86000002318461037BD4680BD00BF5819002090
:10A87000A81A0020D838002080B586B000AF7860D4
:10A880000B467B800023FB747B6803331B78032B10
:10A890000CD87B68DB78FB7400237B61FB7C2A4A45
:10A8A0009B0113441B78012B11D105E002212C20C0
:10A8B000FEF779F9012342E0FA7C24491346DB00D4
:10A8C00013449B000B4410331B687B6111E0FB7C3D
:10A8D0001D4A9B0113441B78002B0AD1FA7C1B49AB
:10A8E0001346DB0013449B000B4410331B685B4290
:10A8F0007B617B694FF4B47202FB03F1FA7C13486D
:10A900001346DB0013449B00034420331B8891FB58
:10A91000F3F30F4A13600E4B1B783B730C4B5B78C1
:10A920007B730B4B9B78BB73094BDB78FB7307F195
:10A930000C03042219462C20FEF755F90023184673
:10A940001837BD4680BD00BF58190020A81A002046
:10A95000D838002080B588B000AF78600B467B8087
:10A9600000233B73254B03F5805303F23473D3ED7F
:10A97000007AF1EE677A224BC3ED007A204B1B7808
:10A980007B731F4B5B78BB731D4B9B78FB731C4B1E
:10A99000DB783B74194B03F5805303F5E7631B68C1
:10A9A000174A1360164B1B787B74154B5B78BB748E
:10A9B000134B9B78FB74124BDB783B750F4B03F505
:10A9C000805303F23C731B680D4A13600C4B1B78D9
:10A9D0007B750B4B5B78BB75094B9B78FB75084B04
:10A9E000DB783B7607F10C030D2219462B20FEF78E
:10A9F000FAF8002318462037BD4680BD3C1E0020D3
:10AA0000E038002080B588B000AF78600B467B80CE
:10AA100000233B720023FB7735E0FA7F2149134680
:10AA2000DB0013449B000B441433D3ED007AFDEE9E
:10AA3000E77A17EE902A1C4B1A60FB7F9B00BB77CE
:10AA4000BB7F0133184A127820333B4403F8182C9B
:10AA5000BB7F0233144A527820333B4403F8182C4E
:10AA6000BB7F0333104A927820333B4403F8182C01
:10AA7000BB7F04330C4AD27820333B4403F8182CB4
:10AA8000FB7F0133FB77FB7F032BC6D907F108035C
:10AA9000112219462A20FEF7A6F80023184620376F
:10AAA000BD4680BDA81A0020D838002080B588B0E7
:10AAB00000AF78600B467B800023FB772FE0FA7FA6
:10AAC0001E491346DB0013449B000B4410331B68E4
:10AAD0001B4A1360FB7F9B00BB77BB7F184A127831
:10AAE00020333B4403F8182CBB7F0133144A5278BF
:10AAF00020333B4403F8182CBB7F0233104A927872
:10AB000020333B4403F8182CBB7F03330C4AD27824
:10AB100020333B4403F8182CFB7F0133FB77FB7F8A
:10AB2000032BCCD907F10803102219462420FEF785
:10AB30005AF8002318462037BD4680BDA81A0020C9
:10AB4000D838002080B586B000AFF8600B467B8116
:10AB5000144BD3ED0D7A9FED147A67EE877AFCEEF5
:10AB6000E77A17EE903A9AB2104B1A800F4B1B7887
:10AB70003B740E4B5B787B740D4BD3ED047AFCEE8B
:10AB8000E77AC7ED017A3B79DBB2BB7407F11003BA
:10AB9000032219462820FEF726F800231846183706
:10ABA000BD4680BDB400002000007A44D0380020AB
:10ABB0004019002080B584B000AF78600B467B80E0
:10ABC0007B88042B05D001212920FDF7ECFF012310
:10ABD0002EE07B6803331B78032B05D90221292043
:10ABE000FDF7E1FF012323E07B6803331B78124A62
:10ABF0009B01134403331B78032B0FD17B68033372
:10AC00001B780D4A9B01134402331B78012B02D1A0
:10AC100001233B7304E000233B7301E000233B73FB
:10AC200007F10C03032219462920FDF7DCFF00235E
:10AC300018461037BD4680BD5819002080B584B035
:10AC400000AF78600B467B807B68DB783B727B686B
:10AC5000DB787B727B68DB78BB727B68DB78FB72AE
:10AC600007F1080301221946FF20FDF7BCFF00236E
:10AC700018461037BD4680BD80B584B000AF7860FF
:10AC80000B467B803C233B7307F10C0301221946E2
:10AC9000FE20FDF7A8FF002318461037BD4680BDF3
:10ACA00080B584B000AF78600B467B800C4B40F2DF
:10ACB000E9721A800A4B1B783B73094B5B787B73F4
:10ACC0000923BB730823FB7307F10C030422194605
:10ACD000FD20FDF788FF002318461037BD4680BDD4
:10ACE000D0380020B0B58CB000AF78600B467B80C8
:10ACF0000B4B07F10C041D460FCD0FC495E80F0058
:10AD000084E80F001F23FB85FA8D07F10C03194619
:10AD1000FC20FDF768FF002318463037BD46B0BD64
:10AD20005C3B020880B584B000AF78600B467B8046
:10AD300002233B7307F10C0301221946FB20FDF7A8
:10AD400052FF002318461037BD4680BD80B584B041
:10AD500000AF78600B467B803C233B720D4B40F28A
:10AD6000E9721A800B4B1B787B720A4B5B78BB72C3
:10AD70000923FB7208233B7302237B7307F108034B
:10AD800006221946FA20FDF72EFF00231846103739
:10AD9000BD4680BDD038002080B584B000AF78605B
:10ADA0000B467B8000233B7307F10C0301221946FD
:10ADB000FA20FDF718FF002318461037BD4680BD66
:10ADC00080B582B000AF78600B467B807B88082B13
:10ADD00005D001214320FDF7E6FE012399E07B68C1
:10ADE00003331A787B6804331B789A4205D1082113
:10ADF0004320FDF7D8FE01238BE07B6803331B78EB
:10AE0000042B0AD97B6803331B78002B05D108215A
:10AE10004320FDF7C8FE01237BE07B6804331B78E9
:10AE2000042B0AD97B6804331B78002B05D1082139
:10AE30004320FDF7B8FE01236BE0384B93F82A302E
:10AE4000002B04D0354B93F82B30002B05D1092172
:10AE50004320FDF7A8FE01235BE07B6807331B78E6
:10AE600018467B68D9782E4A4FF4AA7300FB03F387
:10AE7000134407330A461A707B6807331B78184659
:10AE80007B681979264A4FF4AA7300FB03F3134435
:10AE900008330A461A707B6805337A6807321278DD
:10AEA000104619781E4A4FF4AA7300FB03F31344AB
:10AEB00005330A461A707B6806337A6807321278BF
:10AEC00010461978164A4FF4AA7300FB03F3134493
:10AED00006330A461A707B6803331B785A1E1149E1
:10AEE0001346DB0013449B000B44083301221A7005
:10AEF0007B6804331B785A1E0A491346DB0013444F
:10AF00009B000B44083301221A704320FDF72EFEEC
:10AF1000002318460837BD4680BD00BFB40000209E
:10AF2000A0350020A81A002080B586B000AF786058
:10AF30000B467B807B88102B05D001214420FDF738
:10AF400032FE012363E07B68DA78334B1A707B684A
:10AF50001A79314B5A707B685A792F4B9A707B68FB
:10AF60009A792D4BDA702C4B1B687B617B68DA7900
:10AF7000294B1A707B681A7A274B5A707B685A7A69
:10AF8000254B9A707B689A7A234BDA70224B1B68A8
:10AF90003B617B68DA7A204B1A707B681A7B1E4B08
:10AFA0005A707B685A7B1C4B9A707B689A7B1A4B51
:10AFB000DA70194B1B68FB607B680F331B781946EE
:10AFC000164A4FF4AA7301FB03F3134424337A693E
:10AFD0001A607B680F331B781946104A4FF4AA7326
:10AFE00001FB03F3134420333A691A607B680F3383
:10AFF0001B781946094A4FF4AA7301FB03F3134463
:10B000002833FA681A604420FDF7B0FD0023184683
:10B010001837BD4680BD00BFE0380020A0350020B5
:10B0200080B586B000AF78600B467B807B88102BA4
:10B0300005D001214520FDF7B6FD012363E07B68C3
:10B04000DA78334B1A707B681A79314B5A707B6807
:10B050005A792F4B9A707B689A792D4BDA702C4B6A
:10B060001B687B617B68DA79294B1A707B681A7AD6
:10B07000274B5A707B685A7A254B9A707B689A7A6C
:10B08000234BDA70224B1B683B617B68DA7A204BDA
:10B090001A707B681A7B1E4B5A707B685A7B1C4B5C
:10B0A0009A707B689A7B1A4BDA70194B1B68FB60AD
:10B0B0007B680F331B781946164A4FF4AA7301FBBD
:10B0C00003F3134478337A691A607B680F331B7873
:10B0D0001946104A4FF4AA7301FB03F31344743367
:10B0E0003A691A607B680F331B781946094A4FF496
:10B0F000AA7301FB03F313447C33FA681A604520FA
:10B10000FDF734FD002318461837BD4680BD00BF4B
:10B11000E0380020A035002080B586B000AF786010
:10B120000B467B807B88102B05D001214620FDF744
:10B130003AFD012363E07B68DA78334B1A707B6851
:10B140001A79314B5A707B685A792F4B9A707B6809
:10B150009A792D4BDA702C4B1B687B617B68DA790E
:10B16000294B1A707B681A7A274B5A707B685A7A77
:10B17000254B9A707B689A7A234BDA70224B1B68B6
:10B180003B617B68DA7A204B1A707B681A7B1E4B16
:10B190005A707B685A7B1C4B9A707B689A7B1A4B5F
:10B1A000DA70194B1B68FB607B680F331B781946FC
:10B1B000164A4FF4AA7301FB03F31344CC337A69A4
:10B1C0001A607B680F331B781946104A4FF4AA7334
:10B1D00001FB03F31344C8333A691A607B680F33E9
:10B1E0001B781946094A4FF4AA7301FB03F3134471
:10B1F000D033FA681A604620FDF7B8FC00231846E1
:10B200001837BD4680BD00BFE0380020A0350020C3
:10B2100080B582B000AF78600B467B807B88052BC1
:10B2200005D001214720FDF7BEFC022382E07B68A8
:10B2300004331B781946414A4FF4AA7301FB03F308
:10B24000134407331B78002B0DD07B6804331B7825
:10B2500019463A4A4FF4AA7301FB03F31344083327
:10B260001B78002B05D107214720FDF79CFC02230A
:10B2700060E07B6803331B78012B05D00321472056
:10B28000FDF791FC012355E07B6804331B781946D8
:10B290002A4A4FF4AA7301FB03F3134407331B78C4
:10B2A000013B274A9B011344303301221A707B680B
:10B2B00004331B781946214A4FF4AA7301FB03F3A8
:10B2C000134407331B785A1E1E491346DB001344F0
:10B2D0009B000B44083301221A707B6804331B78EF
:10B2E0001946164A4FF4AA7301FB03F313440833BB
:10B2F0001B78013B124A9B011344303301221A7020
:10B300007B6804331B7819460C4A4FF4AA7301FB7F
:10B3100003F3134408331B785A1E0A491346DB0013
:10B3200013449B000B44083301221A704720FDF799
:10B330001DFC002318460837BD4680BDA0350020FF
:10B3400058190020A81A002080B584B000AF78609A
:10B350000B467B807B88082B05D001214820FDF718
:10B3600022FC022375E07B6807331B7819463B4AB1
:10B370004FF4AA7301FB03F3134407331B78002B2C
:10B380000DD07B6807331B781946344A4FF4AA73F3
:10B3900001FB03F3134408331B78002B05D107216D
:10B3A0004820FDF700FC022353E07B68DA782C4B41
:10B3B0001A707B681A792A4B5A70294B1B883B817B
:10B3C0007B685A79264B1A707B689A79244B5A709D
:10B3D000234B1B887B813B89002B02D07B89002B70
:10B3E00005D103214820FDF7DEFB022331E07B6815
:10B3F00007331B781946194A4FF4AA7301FB03F36C
:10B40000134407331B785A1E388916491346DB004C
:10B4100013449B000B44203302461A807B68073399
:10B420001B7819460D4A4FF4AA7301FB03F313442A
:10B4300008331B785A1E78890A491346DB001344E7
:10B440009B000B44203302461A804820FDF78EFBF8
:10B45000002318461037BD4680BD00BFA035002030
:10B46000D0380020A81A002080B582B000AF7860E4
:10B470000B467B807B88052B05D001214920FDF7F9
:10B4800092FB022353E07B6803331B7819462A4A58
:10B490004FF4AA7301FB03F3134407331B78002B0B
:10B4A0000DD07B6803331B781946234A4FF4AA73E7
:10B4B00001FB03F3134408331B78002B05D107214C
:10B4C0004920FDF770FB022331E07B6804331B78D1
:10B4D000012B0ED17B6803331B781946164A4FF4B3
:10B4E000AA7301FB03F3134403F5A87301221A7036
:10B4F00019E07B6804331B78022B0ED17B68033381
