:020000040800F2
:1058000000800120B1FE0008C9650008CB650008D2
:10581000CD650008CF650008D165000800000000D4
:10582000000000000000000000000000D365000838
:10583000D565000800000000D7650008D96500089C
:1058400001FF000801FF000801FF000801FF000838
:1058500001FF000801FF000801FF000801FF000828
:1058600001FF000801FF0008E165000801FF0008D2
:10587000ED650008FD65000801FF000801FF000854
:1058800001FF000801FF000801FF000801FF0008F8
:1058900001FF000801FF000801FF00080D66000875
:1058A00001FF000801FF000801FF000801FF0008D8
:1058B00001FF000801FF000801FF000801FF0008C8
:1058C00001FF000801FF000801FF000801FF0008B8
:1058D00001FF000801FF000801FF00081966000829
:1058E00001FF000801FF000801FF000801FF000898
:1058F00001FF000801FF000801FF000801FF000888
:1059000001FF000801FF000801FF000801FF000877
:1059100001FF000801FF00082966000801FF0008D8
:1059200001FF000801FF000801FF000801FF000857
:1059300001FF000801FF000801FF000801FF000847
:1059400001FF000801FF000801FF000801FF000837
:1059500001FF000801FF000801FF000801FF000827
:1059600001FF000801FF000801FF000801FF000817
:1059700001FF000801FF000801FF0008000000000F
:0859800001FF000801FF00080F
:1059900010F8012B11F8013B012A28BF9A42F7D0D9
:1059A000D01A7047034613F8012B002AFBD1181AAE
:1059B00001387047000000000000000000000000F7
:1059C00001F0FF01102A2BDB10F0070F08D010F8B0
:1059D000013B013A8B422DD010F0070F42B3F6D1B4
:1059E000F0B441EA012141EA014122F007047FF0CD
:1059F00000070023F0E80256083C85EA010586EA24
:105A0000010685FA47F5A3FA87F586FA47F6A5FA5F
:105A100087F68EB9EED1F0BC01F0FF0102F007026B
:105A200032B110F8013B013A83EA010313B1F8D116
:105A30000020704701387047002D06BF35460338F7
:105A4000073815F0010F07D1013015F4807F02BF30
:105A5000013015F4C03F0130F0BC0138704700BF81
:105A600081F0004102E000BF83F0004330B54FEA0F
:105A700041044FEA430594EA050F08BF90EA020F7C
:105A80001FBF54EA000C55EA020C7FEA645C7FEA0F
:105A9000655C00F0E2804FEA5454D4EB5555B8BF32
:105AA0006D420CDD2C4480EA020281EA030382EAA3
:105AB000000083EA010180EA020281EA0303362D35
:105AC00088BF30BD11F0004F4FEA01314FF4801C08
:105AD0004CEA113102D0404261EB410113F0004F1A
:105AE0004FEA03334CEA133302D0524263EB4303D1
:105AF00094EA050F00F0A780A4F10104D5F1200E6F
:105B00000DDB02FA0EFC22FA05F2801841F10001C9
:105B100003FA0EF2801843FA05F359410EE0A5F19D
:105B200020050EF1200E012A03FA0EFC28BF4CF0CE
:105B3000020C43FA05F3C01851EBE37101F0004584
:105B400007D54FF0000EDCF1000C7EEB00006EEB91
:105B50000101B1F5801F1BD3B1F5001F0CD349081B
:105B60005FEA30004FEA3C0C04F101044FEA445272
:105B700012F5800F80F09A80BCF1004F08BF5FEAF9
:105B8000500C50F1000041EB045141EA050130BDD9
:105B90005FEA4C0C404141EB0101013C28BFB1F5EB
:105BA000801FE9D291F0000F04BF01460020B1FA36
:105BB00081F308BF2033A3F10B03B3F120020CDA09
:105BC0000C3208DD02F1140CC2F10C0201FA0CF0E7
:105BD00021FA02F10CE002F11402D8BFC2F1200C4C
:105BE00001FA02F120FA0CFCDCBF41EA0C01904002
:105BF000E41AA2BF01EB0451294330BD6FEA04044B
:105C00001F3C1CDA0C340EDC04F11404C4F1200235
:105C100020FA04F001FA02F340EA030021FA04F347
:105C200045EA030130BDC4F10C04C4F1200220FA9E
:105C300002F001FA04F340EA0300294630BD21FADC
:105C400004F0294630BD94F0000F83F4801306BFA2
:105C500081F480110134013D4EE77FEA645C18BF96
:105C60007FEA655C29D094EA050F08BF90EA020F2D
:105C700005D054EA000C04BF1946104630BD91EA25
:105C8000030F1EBF0021002030BD5FEA545C05D128
:105C90004000494128BF41F0004130BD14F5800467
:105CA0003CBF01F5801130BD01F0004545F0FE41DB
:105CB00041F470014FF0000030BD7FEA645C1ABF10
:105CC000194610467FEA655C1CBF0B46024650EA47
:105CD000013406BF52EA033591EA030F41F4002173
:105CE00030BD00BF90F0000F04BF0021704730B5F9
:105CF0004FF4806404F132044FF000054FF00001CE
:105D000050E700BF90F0000F04BF0021704730B58E
:105D10004FF4806404F1320410F0004548BF404263
:105D20004FF000013EE700BF42004FEAE2014FEAB8
:105D300031014FEA02701FBF12F07F4393F07F4F93
:105D400081F06051704732F07F4208BF704793F096
:105D50007F4F04BF41F40021704730B54FF46074A9
:105D600001F0004521F000411CE700BF50EA0102AC
:105D700008BF704730B54FF000050AE050EA010255
:105D800008BF704730B511F0004502D5404261EBC5
:105D900041014FF4806404F132045FEA915C3FF406
:105DA000D8AE4FF003025FEADC0C18BF03325FEAA3
:105DB000DC0C18BF033202EBDC02C2F1200300FA54
:105DC00003FC20FA02F001FA03FE40EA0E0021FA79
:105DD00002F11444BDE600BF70B54FF0FF0C4CF467
:105DE000E06C1CEA11541DBF1CEA135594EA0C0F19
:105DF00095EA0C0F00F0DEF82C4481EA030621EA54
:105E00004C5123EA4C5350EA013518BF52EA03358E
:105E100041F4801143F4801338D0A0FB02CE4FF040
:105E20000005E1FB02E506F00042E0FB03E54FF070
:105E30000006E1FB03569CF0000F18BF4EF0010E68
:105E4000A4F1FF04B6F5007F64F5407404D25FEA64
:105E50004E0E6D4146EB060642EAC62141EA555117
:105E60004FEAC52040EA5E504FEACE2EB4F1FD0C59
:105E700088BFBCF5E06F1ED8BEF1004F08BF5FEAD7
:105E8000500E50F1000041EB045170BD06F0004689
:105E900046EA010140EA020081EA0301B4EB5C0436
:105EA000C2BFD4EB0C0541EA045170BD41F480112E
:105EB0004FF0000E013C00F3AB8014F1360FDEBF53
:105EC000002001F0004170BDC4F10004203C35DA2F
:105ED0000C341BDC04F11404C4F1200500FA05F3B2
:105EE00020FA04F001FA05F240EA020001F0004253
:105EF00021F0004110EBD37021FA04F642EB0601C9
:105F00005EEA430E08BF20EAD37070BDC4F10C04F2
:105F1000C4F1200500FA04F320FA05F001FA04F2B6
:105F200040EA020001F0004110EBD37041F10001A2
:105F30005EEA430E08BF20EAD37070BDC4F12005AD
:105F400000FA05F24EEA020E20FA04F301FA05F215
:105F500043EA020321FA04F001F0004121FA04F2BD
:105F600020EA020000EBD3705EEA430E08BF20EA8D
:105F7000D37070BD94F0000F0FD101F000464000C7
:105F800041EB010111F4801F08BF013CF7D041EA49
:105F9000060195F0000F18BF704703F0004652004D
:105FA00043EB030313F4801F08BF013DF7D043EA1E
:105FB0000603704794EA0C0F0CEA135518BF95EAD4
:105FC0000C0F0CD050EA410618BF52EA4306D1D15B
:105FD00081EA030101F000414FF0000070BD50EA7A
:105FE000410606BF1046194652EA430619D094EA04
:105FF0000C0F02D150EA013613D195EA0C0F05D1EE
:1060000052EA03361CBF104619460AD181EA030141
:1060100001F0004141F0FE4141F470014FF00000F9
:1060200070BD41F0FE4141F4780170BD70B54FF094
:10603000FF0C4CF4E06C1CEA11541DBF1CEA135514
:1060400094EA0C0F95EA0C0F00F0A7F8A4EB0504F6
:1060500081EA030E52EA03354FEA013100F08880ED
:106060004FEA03334FF0805545EA131343EA1263B6
:106070004FEA022245EA111545EA10654FEA00266B
:106080000EF000419D4208BF964244F1FD0404F524
:10609000407402D25B084FEA3202B61A65EB030580
:1060A0005B084FEA32024FF480104FF4002CB6EB3D
:1060B000020E75EB030E22BFB61A754640EA0C00BD
:1060C0005B084FEA3202B6EB020E75EB030E22BFFD
:1060D000B61A754640EA5C005B084FEA3202B6EB3E
:1060E000020E75EB030E22BFB61A754640EA9C00FD
:1060F0005B084FEA3202B6EB020E75EB030E22BFCD
:10610000B61A754640EADC0055EA060E18D04FEA8A
:10611000051545EA16754FEA06164FEAC30343EA2A
:1061200052734FEAC2025FEA1C1CC0D111F4801FF7
:106130000BD141EA00014FF000004FF0004CB6E7F0
:1061400011F4801F04BF01430020B4F1FD0C88BF8F
:10615000BCF5E06F3FF6AFAEB5EB030C04BFB6EB9A
:10616000020C5FEA500C50F1000041EB045170BD8D
:106170000EF0004E4EEA113114EB5C04C2BFD4EBBA
:106180000C0541EA045170BD41F480114FF0000E3E
:10619000013C90E645EA060E8DE60CEA135594EABA
:1061A0000C0F08BF95EA0C0F3FF43BAF94EA0C0FBD
:1061B0000AD150EA01347FF434AF95EA0C0F7FF432
:1061C00025AF104619462CE795EA0C0F06D152EA86
:1061D00003353FF4FDAE1046194622E750EA41066A
:1061E00018BF52EA43067FF4C5AE50EA41047FF47B
:1061F0000DAF52EA43057FF4EBAE12E74FF0FF3CE0
:1062000006E000BF4FF0010C02E000BF4FF0010CB0
:106210004DF804CD4FEA410C7FEA6C5C4FEA430C29
:1062200018BF7FEA6C5C1BD001B050EA410C0CBF78
:1062300052EA430C91EA030F02BF90EA020F0020DA
:10624000704710F1000F91EA030F58BF994208BF41
:1062500090422CBFD8176FEAE37040F001007047FE
:106260004FEA410C7FEA6C5C02D150EA013C07D155
:106270004FEA430C7FEA6C5CD6D152EA033CD3D0A0
:106280005DF8040B704700BF8446104662468C469A
:106290001946634600E000BF01B5FFF7B7FF0028CD
:1062A00048BF10F1000F01BD4DF808EDFFF7F4FFF6
:1062B0000CBF012000205DF808FB00BF4DF808ED81
:1062C000FFF7EAFF34BF012000205DF808FB00BFA4
:1062D0004DF808EDFFF7E0FF94BF012000205DF8C6
:1062E00008FB00BF4DF808EDFFF7CEFF94BF01207B
:1062F00000205DF808FB00BF4DF808EDFFF7C4FF74
:1063000034BF012000205DF808FB00BF4FEA4102C6
:1063100012F5001215D211D56FF47873B3EB6252F7
:1063200012D94FEAC12343F0004343EA505311F01E
:10633000004F23FA02F018BF404270474FF00000B0
:10634000704750EA013005D111F0004008BF6FF0EE
:10635000004070474FF00000704700BF53B94AB982
:10636000002908BF00281CBF4FF0FF314FF0FF305D
:1063700000F0E2B8ADF1080C6DE904CE0BF0EAFED6
:10638000DDF804E0DDE9022304B0704700F13401D8
:1063900091E838009C46A6464CF8045D90E8FF0F53
:1063A000E54600BD90EC210B704700BF80EC210B4F
:1063B000704700BF90EC200B704700BF80EC200BB3
:1063C000704700BFD0EC200B704700BFC0EC200B23
:1063D000704700BFF0EC0201F0EC0211F0EC02217A
:1063E000F0EC0231F0EC0241F0EC0251F0EC026111
:1063F000F0EC0271F0EC0281F0EC0291F0EC02A101
:10640000F0EC02B1F0EC02C1F0EC02D1F0EC02E1F0
:10641000F0EC02F1704700BFE0EC0201E0EC021189
:10642000E0EC0221E0EC0231E0EC0241E0EC025150
:10643000E0EC0261E0EC0271E0EC0281E0EC029140
:10644000E0EC02A1E0EC02B1E0EC02C1E0EC02D130
:10645000E0EC02E1E0EC02F1704700BFB0FC01812A
:10646000B0FC0191B0FC01A1B0FC01B1704700BFCC
:10647000A0FC0181A0FC0191A0FC01A1A0FC01B144
:10648000704700BFEC4600B52DE900502DE9FF1F15
:106490004FF000032DE90C0001A90CF015F9DDF80F
:1064A00040E012B0704700BFEC4600B52DE9005047
:1064B0002DE9FF1F4FF000032DE90C0001A90CF09E
:1064C0003FF9DDF840E012B0704700BFEC4600B580
:1064D0002DE900502DE9FF1F4FF000032DE90C00BE
:1064E00001A90CF04FF9DDF840E012B0704700BF91
:1064F000EC4600B52DE900502DE9FF1F4FF00003D9
:106500002DE90C0001AB0CF013F9DDF840E012B0FE
:10651000704700BFEC4600B52DE900502DE9FF1F84
:106520004FF000032DE90C0001AA0CF085F9DDF80D
:1065300040E012B0704700BF704700BF0348044BF3
:10654000834202D0034B03B11847704780000020FC
:1065500080000020000000000548064B1B1AD90FE0
:1065600001EBA301491002D0034B03B11847704758
:1065700080000020800000200000000010B5064CC4
:10658000237843B9FFF7DAFF044B13B10448AFF3A4
:1065900000800123237010BD800000200000000057
:1065A0005432010808B5054B1BB105490548AFF346
:1065B0000080BDE80840FFF7CFBF00BF000000002B
:1065C0008400002054320108FEE7FEE7FEE7FEE704
:1065D000FEE770477047704708B501F065F908BDE0
:1065E00008B5102002F052FB08BD000008B50248B3
:1065F00002F07EFC08BD00BFA802002008B50248DA
:1066000002F076FC08BD00BFF002002008B5202093
:1066100002F03CFB08BD000008B5024804F0B4FAE3
:1066200008BD00BF3803002008B5024803F050FD44
:1066300008BD00BF2C05002082B00A4B1A6E42F044
:1066400001021A661A6E02F001020092009A9A6D17
:1066500042F080529A659B6D03F080530193019B39
:1066600002B070470010024010B5AAB004460021E5
:1066700025912691279128912991882203A80BF032
:1066800055F92268174B9A4201D02AB010BD4FF439
:10669000804303934FF04053219303A801F026FF5A
:1066A000E8B9114BDA6C42F40052DA64DA6C02F4A5
:1066B00000520192019ADA6C42F00402DA64DB6C57
:1066C00003F004030293029B082325930B232693D4
:1066D0000023279325A9054802F032F9D5E705F0F4
:1066E000A9FADEE70000045000100240000800484C
:1066F00010B5ACB0044600212791289129912A9128
:106700002B91882205A80BF011F92368314A934296
:1067100004D0314A93422DD02CB010BD40230593B4
:1067200005A801F0E3FE10BB2C4CE36C43F0020320
:10673000E364E36C03F002030193019B4FF44073A5
:106740002793122328930023299303232A930423B6
:106750002B9327A9224802F0F3F8A36D43F400130A
:10676000A365A36D03F400130293029BD4E705F025
:1067700061FAD9E7802305934FF480431A9305A863
:1067800001F0B4FE10BB154CE36C43F00203E3646C
:10679000E36C03F002030393039B4FF440632793DE
:1067A000122328930023299303232A9304232B9352
:1067B00027A90B4802F0C4F8A36D43F48003A36536
:1067C000A36D03F480030493049BA5E705F032FA5C
:1067D000D9E700BF005400400058004000100240BC
:1067E0000004004810B50368154A934203D0154AC7
:1067F000934212D010BD02F5DE32936D23F40013E4
:106800009365114C4FF48071204602F099F94FF4D2
:106810000071204602F094F9ECE702F5DC32936D4A
:1068200023F480039365084C4FF48061204602F006
:1068300087F94FF40061204602F082F9DAE700BFE1
:1068400000540040005800400004004810B5AAB0B1
:10685000044600212591269127912891299188228B
:1068600003A80BF063F82268174B9A4201D02AB0B4
:1068700010BD4FF40073039303A801F037FE00BB73
:10688000124B9A6D42F000429A659A6D02F00042F6
:106890000192019ADA6C42F00402DA64DB6C03F0D4
:1068A00004030293029B05232593022326930023CE
:1068B000279328930123299325A9054802F040F83E
:1068C000D5E705F0B7F9DBE7007C00400010024097
:1068D0000008004830B58DB0002307930893099352
:1068E0000A930B9303683E4A934207D0B3F1804F5B
:1068F00024D03C4A934256D00DB030BD3A4B1A6E6C
:1069000042F400621A661A6E02F400620092009A63
:10691000DA6C42F00102DA64DB6C03F001030193EC
:10692000019B4FF4407307930223089301230B93B9
:1069300007A94FF0904002F003F8DDE703F50433B8
:106940009A6D42F001029A659A6D02F0010202927C
:10695000029ADA6C42F00102DA64DA6C02F00102A7
:106960000392039ADA6C42F00202DA64DB6C03F001
:1069700002030493049B4FF40043079302250895F8
:1069800001240B9407A94FF0904001F0D9FF082390
:1069900007930895002309930A930B9407A91348BA
:1069A00001F0CEFFA8E7104B9A6D42F004029A6501
:1069B0009A6D02F004020592059ADA6C42F0020226
:1069C000DA64DB6C03F002030693069BC023079393
:1069D000022308930B9307A9044801F0B1FF8BE74A
:1069E000002C014000080040001002400004004854
:1069F00084B00368154A934207D0154A93420FD0DA
:106A0000144A934217D004B07047134B9A6D42F06A
:106A100002029A659B6D03F002030193019BF2E76A
:106A20000D4B9A6D42F008029A659B6D03F00803C6
:106A30000293029BE7E7084B1A6E42F400521A6673
:106A40001B6E03F400530393039BDCE70004004038
:106A5000000C0040003401400010024000B585B039
:106A600003681A4A934208D0194A934218D0194A27
:106A7000934220D005B05DF804FB174B9A6D42F0AD
:106A800010029A659B6D03F010030193019B002295
:106A90001146362002F0CAFB362002F0D7FBE9E7A8
:106AA0000D4B1A6E42F400321A661B6E03F400336B
:106AB0000293029BDEE7084B1A6E42F480221A66AC
:106AC0001B6E03F480230393039BD3E70010004065
:106AD00000440140004801400010024000B58BB066
:106AE0000023059306930793089309930368324A9A
:106AF00093420BD0314A93421CD0314A93422ED05C
:106B0000304A934241D00BB05DF804FB2E4BDA6C57
:106B100042F00202DA64DB6C03F002030193019B92
:106B20003323059302230693099305A9274801F00F
:106B300007FFE8E7244BDA6C42F00102DA64DB6C11
:106B400003F001030293029B0F2305930223069394
:106B5000099305A94FF0904001F0F2FED3E71A4BDC
:106B6000DA6C42F00402DA64DB6C03F00403039392
:106B7000039B4FF470730593022306930323099339
:106B800005A9134801F0DCFEBDE70F4BDA6C42F0BB
:106B90000102DA64DB6C03F001030493049B4023DD
:106BA0000593022306930E23099305A94FF0904005
:106BB00001F0C6FEA7E700BF00040040000C004043
:106BC000003401400044014000100240000400482D
:106BD00000080048F0B5ADB0044600212791289187
:106BE00029912A912B91882205A80AF09FFE2368FB
:106BF000574A934204D0574A934244D02DB0F0BD37
:106C0000102305934FF48073179305A801F06EFCD1
:106C1000002835D1504B9A6D42F480129A659A6DD6
:106C200002F480120092009ADA6C42F00402DA64F4
:106C3000DA6C02F004020192019ADA6C42F0080266
:106C4000DA64DB6C03F008030293029B4FF4805379
:106C50002793022728970026299603252A9508249A
:106C60002B9427A93D4801F06BFE04232793289716
:106C700029962A952B9427A9394801F061FEBDE792
:106C800004F0D8FFC6E7042305931023159305A845
:106C900001F02CFC002851D12F4B9A6D42F4802238
:106CA0009A659A6D02F480220392039ADA6C42F09C
:106CB0000402DA64DB6C03F004030493049B4FF4D6
:106CC00040632793022628960025299503232A93BB
:106CD00007232B9327A9214801F032FE2148224B9C
:106CE000036046608560C5608023036145618561FE
:106CF000C561056201F0F2FF18BB1A4B63679C6225
:106D00001A481B4B03600223436010238360002357
:106D1000C3608022026143618361C361036201F049
:106D2000DDFF88B9114B23679C62002211462720A2
:106D300002F07CFA272002F089FA5FE704F07AFF7C
:106D4000AAE704F077FFD8E704F074FFEAE700BF92
:106D50000050004000480040001002400008004879
:106D6000000C0048F002002030000240A802002081
:106D70001C00024010B430300B0A9B0003F00C03DF
:106D8000C45801F01F014FF01F0C0CFA01FC24EA5B
:106D90000C0CC2F384628A404CEA0202C2505DF8D5
:106DA000044B704710B414304B0E9B0003F00403E7
:106DB000C458C1F304514FF0070C0CFA01FC24EA4B
:106DC0000C0C8A404CEA0202C2505DF8044B70473A
:106DD00030B583B000230193002800F0E38004461F
:106DE000436D13B323689A6812F0005F05D09A6868
:106DF00022F0204222F03F029A602268936813F04A
:106E0000805F1FD1936823F0104323F03F0343F0CA
:106E100080539360644B1B689B09644AA2FB032365
:106E20009B0901335B00019309E0FFF71DFC002380
:106E3000A36584F85030D5E7019B013B0193019B8A
:106E4000002BF9D12268936813F0805F40F08380B3
:106E5000636D43F010036365A36D43F00103A36505
:106E60000120936813F0040300D00123616D11F039
:106E7000100F40F09080002B40F08D80636D23F464
:106E8000817343F002036365936813F0010F1BD114
:106E9000474B9A6812F0010200D00122454B9B68D3
:106EA00013F0010300D001231343434A926812F008
:106EB000010200D00122134306D163683F498A686A
:106EC00022F47C1213438B60627E636B43EA42338D
:106ED000E2681343A268134394F8202043EA024374
:106EE000012A3AD0A26A22B102F47072E16A0A431E
:106EF00013432168CD68324A2A401A43CA60226887
:106F0000936813F0080300D00123ABB9237E94F8F3
:106F10003010490041EA8331D36823F4804323F0E1
:106F200002030B43D36094F83830012B1AD0226847
:106F3000136923F0010313612369012B22D0226816
:106F4000136B23F00F031363636D23F0030343F00C
:106F50000103636524E0002083E7626A013A43EAA3
:106F60004243BFE721680B696FF38A03E26B256C2C
:106F70002A43656C2A43A56C2A43134343F001035B
:106F80000B61D9E721680B6B23F00F03E269013A2B
:106F900013430B63D8E7636D43F01003636501206F
:106FA00003B030BD0120FBE70C000020632D3E053F
:106FB000000004500001045000020450000304507B
:106FC00007C0F0FF2DE9F04104460E46424B9F6892
:106FD00007F01F074569082D0DD0092F30D840F262
:106FE0002123FB4013F0010F2AD00368DB6813F064
:106FF000010F1FD1042500F063FC804623681A6846
:107000002A422AD1B6F1FF3FF8D000F059FCA0EB9C
:107010000800B04201D8002EF0D123681B682B4233
:10702000ECD1636D43F004036365002384F85030B2
:1070300003204CE0436D43F020034365012046E00C
:10704000254B9B6813F4604F01D10425D3E7636D92
:1070500043F020036365012039E0626D42F4007261
:107060006265DA6812F4406F11D1627E7AB91A68EB
:1070700012F0080F0BD0626D22F480726265626DAF
:1070800012F4805F03D1626D42F001026265134A1F
:10709000934214D01A46934207D0092F12D840F2D7
:1070A0002121F94011F0010F0CD0DA68082D0BD026
:1070B00012F4804F0DD10C221A60002007E0A2F5D7
:1070C0008072E8E7D268F1E708221A600020BDE884
:1070D000F0810020FBE700BF0003045000010450D2
:1070E0000368186C70470000F0B583B0002301936B
:1070F00090F85030012B00F00C8204460D4601231D
:1071000080F850300068836813F0040F09D0636D75
:1071100043F0200363650120002384F8503003B05E
:10712000F0BD4968052907D8023903294ED8DFE8A0
:1071300001F0024F484A0C212A68FFF71BFE206825
:10714000836813F0040300D00123826812F0080260
:1071500000D001220BB9002A3CD02268936813F0BA
:10716000010F17D12B68E868D2F8B010C3F31206EC
:1071700021EA060100F0180CA84820FA0CF00340A0
:10718000C3F312030B43C2F8B030EA68A44B9A422F
:1071900000F0A5802B68A34A134200F0B681A24AF2
:1071A000926802F0E070A1498B4200F05881A0493A
:1071B0008B4200F07F819F498B4200F09381002039
:1071C000AAE71821B8E74FF48071B5E70621B3E7C5
:1071D0001221B1E7AA682968FFF7E4FD6A6921680E
:1071E000CB68C3F3C1035B009A40286904280ED022
:1071F0002E68603151F820708F4B3B4006F0F84606
:107200003243134343F0004341F82030A5E70B6EAF
:107210000A6EC2F384622B68C3F3120080BBC3F30F
:1072200084639A4234D021684B6E4A6EC2F3846202
:107230002B68C3F3120080BBC3F384639A4234D03B
:1072400021688B6E8A6EC2F384622B68C3F31200CE
:1072500080BBC3F384639A4234D02168CB6ECA6E7C
:10726000C2F384622B68C3F3120080BBC3F3846350
:107270009A427FF472AFCB6E23F00043CB666CE78B
:1072800093FAA3F313B1B3FA83F3CAE72023C8E751
:107290000B6E23F000430B66C5E793FAA3F313B11B
:1072A000B3FA83F3CAE72023C8E74B6E23F0004309
:1072B0004B66C5E793FAA3F313B1B3FA83F3CAE7B6
:1072C0002023C8E78B6E23F000438B66C5E793FA53
:1072D000A3F313B1B3FA83F3CAE72023C8E7206806
:1072E0002B68C3F312063EBB9A0E013202F01F0256
:1072F000092A8CBF00220122002A55D05EBB990EBC
:107300000131890601F0F8418EBB4FEA936C0CF114
:10731000010C0CF01F0C012202FA0CF21143AEBB5F
:107320009B0E013303F01F0303EB43031B051943BB
:10733000AA68FFF737FD2DE793FAA3F24AB1B2FA34
:1073400082F2013202F01F02092A8CBF00220122C0
:10735000D2E72022F5E793FAA3F131B1B1FA81F136
:107360000131890601F0F841CEE72021F8E793FAD0
:10737000A3F24AB1B2FA82F2013202F01F024FF0D8
:10738000010C0CFA02F2C9E72022F5E793FAA3F305
:1073900043B1B3FA83F3013303F01F0303EB430359
:1073A0001B05C4E72023F6E7E6B9990E01318906EB
:1073B00001F0F84116BB4FEA936C0CF1010C0CF094
:1073C0001F0C012202FA0CF21143BEBB9B0E0133CB
:1073D00003F01F0303EB43031E3B1B0543F0007345
:1073E0001943A5E793FAA3F131B1B1FA81F1013163
:1073F000890601F0F841DDE72021F8E793FAA3F2CE
:107400004AB1B2FA82F2013202F01F024FF0010CCF
:107410000CFA02F2D8E72022F5E700BFFFFF0700D1
:1074200000007F400000088000030450000052C7A5
:10743000000084CB0100008000F0FF0393FAA3F367
:107440005BB1B3FA83F3013303F01F0303EB430390
:107450001E3B1B0543F00073C2E72023F3E712F441
:10746000000F7FF4A4AE23682B4A934205D002F5A7
:107470000072934201D000204EE640F40000274AFB
:10748000936823F0E07318439060254B1B689B09B9
:10749000244AA2FB03239B09013303EB43039B0014
:1074A000019302E0019B013B0193019B002BF9D169
:1074B000002031E612F0807F7FF47DAE2368164A0B
:1074C000934205D002F50072934201D0002023E6DA
:1074D00040F0807311498A6822F0E07213438B6098
:1074E000002019E612F4800F11D122680A4B9A424B
:1074F00001D0002010E640F4800308498A6822F099
:10750000E07213438B60002006E6002004E60020B2
:1075100002E6022003E600BF00000450000304500E
:107520000C000020632D3E0530B583B0002301938D
:1075300003689A6812F0010F58D1044699682D4AE1
:10754000114219D19A6822F0004222F03F0242F023
:1075500001029A60284B9B6813F4000F1CD0274B44
:107560001B689B09264AA2FB03239B09013303EBFB
:1075700043039B0001930CE0436D43F0100343650C
:10758000836D43F001038365012030E0019B013BE3
:107590000193019B002BF9D100F092F90546236875
:1075A0001A6812F0010F1FD19A6812F0010F07D16B
:1075B0009A6822F0004222F03F0242F001029A60F3
:1075C00000F07EF9431B022BE9D923681B6813F0F6
:1075D000010FE4D1636D43F010036365A36D43F0C5
:1075E0000103A365012002E0002000E0002003B0B9
:1075F00030BD00BF3F000080000304500C0000209D
:10760000632D3E0538B53C4B9D6803689B6813F0BD
:10761000040F6CD1044605F01F0590F85030012B83
:1076200067D0012380F85030FFF77EFF00285AD141
:10763000636D23F4706323F0010343F48073636587
:1076400023682E4A934236D01A46934200D01DB981
:10765000626D22F480126265626D12F4805F2DD03B
:10766000A26D22F00602A2651C221A60002384F893
:1076700050302368214A934223D01A46934207D0C0
:10768000092D21D840F22121E94011F0010F1BD032
:10769000DA6812F0007F05D0626D22F4405242F4A5
:1076A000805262659A6822F0004222F03F0242F066
:1076B00004029A601CE0A2F58072C6E70022A2656F
:1076C000D2E7A2F58072D9E7636D43F48013636556
:1076D000D36813F0007F0BD0636D23F4405343F461
:1076E0008053636504E0002384F8503000E00220FA
:1076F00038BD0220FCE700BF000304500001045025
:1077000090F85020012A00F08D8010B49BB0034601
:10771000012280F850200022169217920068424AF7
:1077200090423FD000220192019A002A3ED09268F6
:1077300012F0040200D00122806810F0040F61D121
:10774000002A5FD10A68002A39D0384CA26822F496
:107750006042486893F830C040EA4C300243A2606F
:10776000314A906810F0010000D00120304A926840
:1077700012F0010200D0012202432E48806810F06E
:10778000010000D00120024348D1284CA26822F415
:10779000716222F00F020868896801430A43A260FF
:1077A000002034E002F580720192BDE75A6D42F08C
:1077B00020025A65002283F8502001202AE01B494C
:1077C0008A6822F460428A60174A916811F00101C8
:1077D00000D00121164A926812F0010200D0012265
:1077E0000A431449896811F0010100D001210A43BC
:1077F00016D10E498A6822F4716222F00F028A6063
:10780000002004E05A6D42F020025A650120002257
:1078100083F850201BB05DF8044B70470020F6E75A
:107820000020F4E7022070470000045000030450D9
:107830000001045000020450104B1B780BB90120CA
:10784000704710B504464FF47A70B0FBF3F30C4A5E
:107850001068B0FBF3F001F0FDFC68B90F2C01D902
:1078600001200AE0002221464FF0FF3001F0DEFC4B
:10787000044B1C60002000E0012010BD040000202B
:107880000C0000200800002010B5032001F0BCFC13
:107890000F20FFF7D1FF10B10124204610BD044690
:1078A000FEF7CAFEF9E70000034B1B78034A116894
:1078B0000B441360704700BF040000209C000020B0
:1078C000014B1868704700BF9C00002038B5044683
:1078D000FFF7F6FF0546B4F1FF3F02D0044B1B78DB
:1078E0001C44FFF7EDFF401BA042FAD338BD00BF98
:1078F0000400002030B583B00446204B9B6D13F08C
:10790000805F0BD001F082FBB0F5007F17D0802C98
:107910001FD82DD0702C2DD000211BE0174DAB6D42
:1079200043F08053AB65AB6D03F080530193019B33
:1079300001F06CFBAB6D23F08053AB65E4E7802C6A
:1079400003D9A02C03D9022104E0002102E0012187
:1079500000E003210A4A136823F007030B43136076
:10796000136803F007038B4206D1002003B030BD3B
:107970000221EFE70121EDE70120F7E700100240C7
:1079800000200240284A9368D26802F0030213F0F4
:107990000C030AD00C2B06D0042B1FD0082B20D0B0
:1079A0000020024610E0012AF6D11F4A126812F0A8
:1079B000080F0CD11C4AD2F89420C2F303221B49B1
:1079C00051F8222043B100200C2B0DD07047164AED
:1079D0001268C2F30312F2E71046F5E714480022DA
:1079E000F2E714480022EFE70F4BDB6803F00303D4
:1079F000022B03D0032B02D10E4A00E00C4A0A49A5
:107A0000CB68C3F302130133C868C0F3062002FB3E
:107A100000F0B0FBF3F0CB68C3F3416301335B00CC
:107A2000B0FBF3F0D2E700BF001002408032010843
:107A30000024F40000127A00002800F0F182F0B572
:107A400083B00446964B9D6805F00C05DE6806F091
:107A50000306036813F0100F5AD0E5B10C2D18D0AF
:107A6000A369002B00F0BB808D4A136843F001032B
:107A70001360FFF725FF0746894B1B6813F0020FC1
:107A800040F09A80FFF71CFFC01B0228F4D90320A6
:107A9000D1E2012EE4D1824B1B6813F0020F03D018
:107AA000A369002B00F0BE82206A7D4B1B6813F097
:107AB000080F5BD07A4B1B6803F0F00398425CD848
:107AC000774B1A6842F008021A601A6822F0F00236
:107AD000216A0A431A605A6822F47F42E16942EA45
:107AE00001225A60002D60D0FFF74CFF6C4B9B6861
:107AF000C3F303136B4AD35C03F01F03D8406A4BF4
:107B000018606A4B1868FFF797FE002840F09382D0
:107B1000236813F0010F00F08180082D75D00C2D23
:107B200071D06368B3F5803F00F09780B3F5A02F64
:107B300000F099805A4B1A6822F480321A601A6851
:107B400022F480221A606368002B00F09980FFF70E
:107B5000B7FE0746524B1B6813F4003F5ED1FFF798
:107B6000AFFEC01B6428F5D9032064E24C4BD3F868
:107B700094301B0903F0F003A0E7FFF7BBFE0028D9
:107B800040F05282464B1A6842F008021A601A68A6
:107B900022F0F002216A0A431A605A6822F47F42F6
:107BA000E16942EA01225A609EE7206AFFF7A2FEDD
:107BB000002899D001203EE2394B1A6842F00802B1
:107BC0001A601A6822F0F002216A0A431A605A68A1
:107BD00022F47F42E16942EA01225A6098E7304A82
:107BE000136823F001031360FFF76AFE07462C4B6E
:107BF0001B6813F0020F8BD0FFF762FEC01B022838
:107C0000F5D9032017E2032E8BD1254B1B6813F403
:107C1000003F03D06368002B00F00882236813F054
:107C2000020F58D0042D45D00C2D41D0E368002B15
:107C300077D01B4A136843F480731360FFF740FE4C
:107C40000646174B1B6813F4806F61D1FFF738FEAF
:107C5000801B0228F5D90320EDE1114A136843F493
:107C6000803313606FE703F18043A3F53C331A6858
:107C700042F480221A601A6842F480321A6062E785
:107C8000FFF71EFE0746064B1B6813F4003FC5D0E6
:107C9000FFF716FEC01B6428F5D90320CBE100BF17
:107CA00000100240B83201080C000020080000203B
:107CB000022EBBD1A34B1B6813F4806F03D0E36883
:107CC000002B00F0B5819F4A536823F0F8532169D7
:107CD00043EA01635360236813F0080F4CD06369D3
:107CE0009BB3984AD2F8943043F00103C2F8943021
:107CF000FFF7E6FD0646934BD3F8943013F0020FDE
:107D00003AD1FFF7DDFD801B0228F4D9032092E170
:107D10008C4A536823F0F853216943EA01635360A6
:107D2000D9E7884A136823F480731360FFF7C8FD0E
:107D30000646844B1B6813F4806FCCD0FFF7C0FD60
:107D4000801B0228F5D9032075E17E4AD2F89430D1
:107D500023F00103C2F89430FFF7B2FD0646794BD9
:107D6000D3F8943013F0020F06D0FFF7A9FD801B63
:107D70000228F4D903205EE1236813F0040F7AD0BF
:107D8000704B9B6D13F0805F36D16E4B9A6D42F055
:107D900080529A659B6D03F080530193019B0126ED
:107DA000694B1B6813F4807F28D0A368012B39D05E
:107DB000052B3FD0634BD3F8902022F00102C3F88B
:107DC0009020D3F8902022F00402C3F89020A368FA
:107DD000002B3DD0FFF774FD07465A4BD3F8903087
:107DE00013F0020F46D1FFF76BFDC01B41F2883341
:107DF0009842F2D903201EE10026D1E7524A1368C7
:107E000043F480731360FFF75BFD07464E4B1B681E
:107E100013F4807FC9D1FFF753FDC01B0228F5D9A9
:107E2000032008E1474AD2F8903043F00103C2F83A
:107E30009030CCE7434BD3F8902042F00402C3F8D3
:107E40009020D3F8902042F00102C3F89020BEE7C2
:107E5000FFF736FD07463B4BD3F8903013F0020F87
:107E600008D0FFF72DFDC01B41F288339842F2D9AC
:107E70000320E0E0EEB9A36A002B00F0DB80022BC8
:107E80001DD00C2D00F0DD802E4A136823F0807386
:107E90001360FFF715FD04462A4B1B6813F0007FA3
:107EA00000F0B780FFF70CFD001B0228F4D9032077
:107EB000C1E0244A936D23F080539365DBE7214BA7
:107EC000DB6803F00301E26A91420FD00C2D00F051
:107ED000B4801C4B1B6813F0806F40F0B080194BCE
:107EE0001B6813F0805F31D00120A4E003F0700222
:107EF000216B0139B2EB011FE8D103F4FE42616B43
:107F0000B2EB012FE2D103F40031A26B073A18BFA4
:107F100001229142DAD103F4C001E26B5208013A26
:107F2000B1EB425FD2D103F0C063226C5208013A38
:107F3000B3EB426FCAD1034B1B6813F0007F4ED0E6
:107F4000002078E000100240007000403E4A1368B4
:107F500023F080731360FFF7B3FC05463A4B1B68B0
:107F600013F0007F06D0FFF7ABFC401B0228F5D9C9
:107F7000032060E0344AD36834491940E36A206B37
:107F8000013843EA0013606B43EA0023E06B4008CA
:107F9000013843EA4053206C4008013843EA40630B
:107FA000A06B000943EA40431943D160136843F0D2
:107FB00080731360D36843F08073D360FFF780FC55
:107FC0000446214B1B6813F0007F06D1FFF778FCB5
:107FD000001B0228F5D903202DE000202BE01A4BCE
:107FE0001A6842F080721A60DA6842F08072DA60D1
:107FF000FFF766FC0446144B1B6813F0007F06D1A4
:10800000FFF75EFC031B022BF5D9032013E00020D1
:1080100011E00D4AD1680E4B0B40D36000200AE0FE
:1080200001207047012006E0012004E0012002E069
:10803000012000E0002003B0F0BD0120FBE701209B
:10804000F9E70120F7E700BF001002408C809DF99E
:10805000FCFFEEFE002800F0AF8070B50D46044630
:10806000594B1B6803F007038B420BD2564A136827
:1080700023F007030B431360136803F007038B42DD
:1080800040F09C80236813F0020F0CD0A2684F4B85
:108090009B6803F0F0039A4205D94C498B6823F0A2
:1080A000F0031A438A60236813F0010F39D0636824
:1080B000032B09D0022B26D063BB444A126812F06E
:1080C000020F06D1012076E0404A126812F0007FCC
:1080D00076D03E498A6822F0030213438B60FFF793
:1080E000EFFB0646394B9B6803F00C036268B3EB69
:1080F000820F16D0FFF7E4FB801B41F288339842D1
:10810000F0D9032057E0314A126812F4003FE0D161
:10811000012050E02D4A126812F4806FD9D101205D
:1081200049E0236813F0020F0CD0A268274B9B682C
:1081300003F0F0039A4205D224498B6823F0F00340
:108140001A438A60204B1B6803F00703AB420AD92D
:108150001D4A136823F007032B431360136803F0D1
:108160000703AB422ED1236813F0040F06D0174A41
:10817000936823F4E063E1680B439360236813F092
:10818000080F07D0114A936823F46053216943EA2A
:10819000C1039360FFF7F6FB0C4B9B68C3F303131B
:1081A0000B4AD35C03F01F03D8400A4B18600A4BFC
:1081B0001868FFF741FB70BD012070470120FAE706
:1081C0000120F8E70120F6E70020024000100240FD
:1081D000B83201080C00002008000020014B18688C
:1081E000704700BF0C00002008B5FFF7F7FF054BF4
:1081F0009B68C3F30223044AD35C03F01F03D840F7
:1082000008BD00BF00100240B032010808B5FFF7FA
:10821000E5FF054B9B68C3F3C223044AD35C03F01C
:108220001F03D84008BD00BF00100240B032010853
:10823000F8B504460D46594BDB6813F0030F18D010
:10824000564BDB6803F003030268934202D0012619
:108250003046F8BD002A00F09D80504BDB68C3F328
:10826000021301334268934201D00126F0E7002651
:1082700019E00368022B56D0032B5BD0012B40F092
:108280008B80464A126812F0020F5FD04348C268E2
:1082900022F073026168013943EA01131343C3609A
:1082A0000026002ED4D13D4A136823F0806313606A
:1082B000FFF706FB0746394B1B6813F0006F05D02C
:1082C000FFF7FEFAC31B022BF5D90326002EBFD100
:1082D000002D3DD131490B6923F41F3323F4407342
:1082E000A068E2681209520442EA002213430B61BB
:1082F0002A4A136843F080631360FFF7E1FA0546EA
:10830000264B1B6813F0006F05D1FFF7D9FA401B0D
:108310000228F5D90326002E9AD1204A1369A169B3
:108320000B43136194E71D4A126812F4806FADD1BC
:1083300001268DE7194A126812F4003FA6D1174AA8
:10834000126812F4802FA1D1012681E70126A8E747
:10835000012D0FD01148026922F0C06222F4FE42C2
:10836000A16863695B08013B5B0643EA01231A438A
:108370000261BDE70948026922F4C00222F4FE420C
:10838000A16823695B08013B5B0543EA01231A43AB
:108390000261ADE701265BE7012659E700100240C4
:1083A000F8B504460D46504BDB6813F0030F18D0A8
:1083B0004D4BDB6803F003030268934202D00126B1
:1083C0003046F8BD002A00F08A80474BDB68C3F3D3
:1083D000021301334268934201D00126F0E70026E0
:1083E00018E00368022B55D0032B5AD0012B78D10B
:1083F0003D4A126812F0020F5FD03B48C26822F07B
:1084000073026168013943EA01131343C360002614
:10841000002ED5D1344A136823F080531360FFF740
:108420004FFA0746304B1B6813F0005F05D0FFF78B
:1084300047FAC31B022BF5D90326002EC0D1002D0D
:108440003DD129494B6923F41F3323F44073A068BD
:10845000E2681209520442EA002213434B61224AA5
:10846000136843F080531360FFF72AFA05461E4B4A
:108470001B6813F0005F05D1FFF722FA401B0228AA
:10848000F5D90326002E9BD1174A536961690B4326
:10849000536195E7144A126812F4806FADD101263A
:1084A0008EE7114A126812F4003FA6D10E4A1268F4
:1084B00012F4802FA1D1012682E70126A8E70A48FD
:1084C000426922F0C06222F4FE42A16823695B087F
:1084D000013B5B0643EA01231A434261BFE70126E1
:1084E0006EE701266CE700BF001002402DE9F04165
:1084F00082B00446036813F4006F33D0436EB3F5C3
:10850000000F15D00CD823B3B3F5800F05D100218F
:108510002030FFF745FF064620E001273E4623E0D6
:10852000B3F5400F01D1002608E001273E461BE0CD
:108530005E4AD36843F48033D36000265B4AD2F8A6
:10854000883023F44003616E0B43C2F88830002763
:108550000AE000210430FFF76BFE0646002EEDD046
:10856000374601E000273E46236813F4805F30D091
:10857000A36EB3F1007F1FD00DD81BB3B3F1807F82
:1085800006D1002104F12000FFF70AFF064605E0AE
:1085900001273E461DE0B3F1407F0AD1C6B9434AE8
:1085A000D2F8883023F04073A16E0B43C2F88830B4
:1085B0000FE001273E460CE03C4AD36843F4803389
:1085C000D360EBE70021201DFFF732FE0646E5E70A
:1085D0003746236813F4003F71D0344B9B6D13F082
:1085E000805F4ED1314B9A6D42F080529A659B6DFF
:1085F00003F080530193019B4FF001082C4A13684C
:1086000043F480731360FFF75BF90546284B1B6842
:1086100013F4807F05D1FFF753F9401B0228F5D9E9
:108620000326002E46D1214BD3F8903013F440732B
:1086300016D0D4F884209A4212D01C4AD2F8903036
:1086400023F44073D2F8901041F48031C2F89010B6
:10865000D2F8901021F48031C2F89010C2F8903016
:1086600013F0010F10D1002E40F027810F4AD2F8ED
:10867000903023F44073D4F884100B43C2F8903048
:1086800019E04FF00008B9E7FFF71AF90546074B64
:10869000D3F8903013F0020FE5D1FFF711F9401B2A
:1086A00041F288339842F2D90326DCE700100240F9
:1086B000007000403746B8F1000F40F00081236899
:1086C00013F0010F08D09D4AD2F8883023F003033D
:1086D000A16B0B43C2F88830236813F0020F08D057
:1086E000964AD2F8883023F00C03E16B0B43C2F8B2
:1086F0008830236813F0040F08D0904AD2F88830ED
:1087000023F03003216C0B43C2F88830236813F048
:10871000080F08D0894AD2F8883023F0C003616C72
:108720000B43C2F88830236813F0100F08D0834A37
:10873000D2F8883023F44073A16C0B43C2F8883020
:10874000236813F0200F08D07C4AD2F8883023F435
:108750004063E16C0B43C2F88830236813F4007F58
:1087600008D0764AD2F8883023F44023E16D0B43D9
:10877000C2F88830236813F4806F08D06F4AD2F8AB
:10878000883023F44013216E0B43C2F888302368ED
:1087900013F0400F08D0694AD2F8883023F44053D0
:1087A000216D0B43C2F88830236813F0800F08D086
:1087B000624AD2F8883023F44043616D0B43C2F81B
:1087C0008830236813F4807F08D05C4AD2F8883060
:1087D00023F44033A16D0B43C2F88830236813F4AF
:1087E000005F0FD0554AD2F8883023F04063E16E25
:1087F0000B43C2F88830E36EB3F1006F65D0B3F17C
:10880000806F67D0236813F4002F0FD04B4AD2F843
:10881000883023F04063216F0B43C2F88830236F08
:10882000B3F1006F5ED0B3F1806F60D0236813F4B2
:10883000802F0FD0414AD2F8883023F04063616F17
:108840000B43C2F88830636FB3F1006F57D0B3F1B8
:10885000806F59D0236813F4804F0FD0374AD2F875
:10886000883023F04053A16F0B43C2F88830A36FC8
:10887000B3F1805F50D0B3F1005F55D0236813F49B
:10888000004F08D02D4AD2F8883023F08043E16FA2
:108890000B43C2F88830236813F4803F09D0274A7D
:1088A000D2F8883023F00043D4F880100B43C2F88C
:1088B0008830384602B0BDE8F0813746FBE61F4AF3
:1088C000936D23F080539365F9E6D36843F48013E6
:1088D000D36097E70121201DFFF7AAFC002891D063
:1088E00007468FE7D36843F48013D3609EE70121E6
:1088F000201DFFF79DFC002898D0074696E7D36817
:1089000043F48013D360A5E70121201DFFF790FCFD
:1089100000289FD007469DE70221201DFFF788FC15
:108920000028ABD00746A9E7022104F12000FFF799
:1089300037FD0028A2D00746A0E700BF0010024084
:10894000F0B583B000236BE085685E000324B4407B
:1089500025EA0405CC68B4402C438460456825EAC8
:108960000C054C68C4F300149C402C43446069E03F
:10897000C56A25EA0C05C4F3C0049C402C43C462BC
:1089800066E0DD08083550F8254003F0070C4FEA93
:108990008C0C4FF00F0E0EFA0CFE24EA0E0E0C6932
:1089A00004FA0CF444EA0E0440F8254067E006247B
:1089B00000E0002404FA0EF42C430CF1020C5C4D90
:1089C00045F82C405B4CA568D44325EA02064F6865
:1089D00017F4801F01D042EA0506564DAE60ED68DF
:1089E00004EA05064F6817F4001F01D042EA0506A5
:1089F000504DEE606D6804EA05064F6817F4003FBD
:108A000001D042EA05064B4D6E602D682C404E6841
:108A100016F4803F01D042EA0504464A146001334F
:108A20000A6832FA03F400F081804FF0010C0CFA6E
:108A300003FC1CEA0202F2D04C6804F00304013C7F
:108A4000012C81D94C6804F0030EBEF1030F8FD0C6
:108A50004C6804F00304032C0CD0C4685D004FF094
:108A6000030C0CFA05FC24EA0C0C8C68AC4044EABC
:108A70000C04C4604C6804F00304022C81D0046828
:108A80004FEA430E4FF0030C0CFA0EFC24EA0C0CD8
:108A90004C6804F0030404FA0EF444EA0C04046085
:108AA0004C6814F4403FBAD0234C256E45F00105C4
:108AB0002566246E04F001040194019C4FEA930C96
:108AC0000CF102051A4C54F8255003F0030E4FEA3E
:108AD0008E0E0F2404FA0EF425EA0405B0F1904F2F
:108AE0003FF467AF154CA04216D004F58064A04255
:108AF00014D004F58064A04212D004F58064A04232
:108B000010D004F58064A0420ED004F58064A04229
:108B10003FF44DAF07244DE701244BE7022449E71A
:108B2000032447E7042445E7052443E703B0F0BDE9
:108B30000000014000040140001002400004004811
:108B4000002331FA03F200F08B80F0B532E0062505
:108B500000E0002505FA0CF5A54265D004685D002B
:108B60004FF0030C0CFA05FC44EA0C0404604FEAD5
:108B7000D30E0EF1080E50F82E4003F00706B60093
:108B80000F25B54024EA050440F82E40846824EA05
:108B90000C048460446824EA02044460C46824EA43
:108BA0000C04C460C46A24EA0202C262013331FACE
:108BB00003F254D001229A4012EA0107F6D04FEA9C
:108BC000930E0EF10205274C54F8254003F0030CD8
:108BD0004FEA8C0C0F2505FA0CF63440B0F1904F9B
:108BE000B7D0214DA84215D005F58065A84213D015
:108BF00005F58065A84211D005F58065A8420FD023
:108C000005F58065A8420DD005F58065A8429ED087
:108C100007259FE701259DE702259BE7032599E7A7
:108C2000042597E7052595E7104C256825EA0705F3
:108C30002560656825EA07056560E56825EA07059A
:108C4000E560A56825EA0705A560064F0EF1020458
:108C500057F8245025EA060547F824507EE7F0BD72
:108C6000704700BF000001400004004800040140BC
:108C70000369194201D001207047002070470AB1F2
:108C800081617047816270477047000008B5054BED
:108C90005B69034200D108BD024B5861FFF7F4FF46
:108CA000F9E700BF0004014030B4446C04F01C0C30
:108CB000012404FA0CF4056C6C600468636083683A
:108CC000102B05D0036899600368DA6030BC7047E8
:108CD00003689A600368D960F8E70000002871D043
:108CE00010B403460168384A914248D8374A0A44CA
:108CF0003748A0FB0202120992005A64354A1A64EE
:108D0000022283F8252008686FF30E109A68DC6849
:108D100022431C6922435C6922439C692243DC692B
:108D200022431C6A224302430A609A68B2F5804FCC
:108D30001BD0196C274A91422CD0264AD2F8A8148D
:108D4000586C00F01C0C0F2000FA0CF021EA000116
:108D5000C2F8A814D2F8A81458685C6C04F01C0C73
:108D600000FA0CF00143C2F8A8140020D8630122D5
:108D700083F8252083F824005DF8044B7047164AD9
:108D80000A441348A0FB0202120992005A64134AD3
:108D90001A64B5E7D2F8A810586C00F01C0C0F202C
:108DA00000FA0CF021EA0001C2F8A810D2F8A810CD
:108DB00058685C6C04F01C0C00FA0CF00143C2F81B
:108DC000A810D2E70120704707040240F8FFFDBF5A
:108DD000CDCCCCCC00000240F8FBFDBF000402402B
:108DE00038B5044690F82400012832D0012084F8D8
:108DF000240094F82500C0B2012804D0002384F890
:108E00002430022038BD022084F825000020E063D1
:108E10002568286820F0010028602046FFF744FFFD
:108E2000236B5BB12268136843F00E031360226862
:108E3000136843F0010313600020E3E7226813681E
:108E400023F0040313602268136843F00A031360DD
:108E5000EDE70220D6E790F82530DBB2022B06D0F2
:108E60000423C363002380F8243001207047026884
:108E7000136823F00E0313600268136823F00103E4
:108E80001360436C03F01C03016C012202FA03F32C
:108E90004B6080F82520002380F824301846704766
:108EA00008B590F82530DBB2022B03D00423C3634E
:108EB000012008BD0268136823F00E0313600268E6
:108EC000136823F001031360436C03F01C03016C6F
:108ED000012202FA03F34B6080F82520002380F87A
:108EE0002430836B13B198470020E2E70020E0E7CD
:108EF00038B5036C196804682568436C03F01C03DB
:108F000004229A400A4215D015F0040F12D02368AB
:108F100013F0200F03D1236823F004032360436C74
:108F200003F01C02016C042393404B60036B03B1FC
:108F3000984738BD02229A400A421CD015F0020F11
:108F400019D0236813F0200F06D1236823F00A03F9
:108F50002360012380F82530436C03F01C02016C70
:108F6000022393404B60002380F82430C36A002B17
:108F7000DFD09847DDE7082202FA03F30B42D8D08E
:108F800015F0080FD5D0236823F00E032360436C3F
:108F900003F01C03016C012202FA03F34B60C2636D
:108FA00080F82520002380F82430436B002BC0D0AC
:108FB0009847BEE7064AD36800F01F0123EA010381
:108FC00043EA5010D060936819439160704700BF26
:108FD00000700040034A936800F01F0023EA00037A
:108FE0009360704700700040064A136823F007033F
:108FF00043F003031360044A136943F0040313614D
:1090000030BF70470070004000ED00E0024B186870
:1090100000F4C060704700BF00700040B0F5007FF2
:109020000FD01F4B1B6803F4C063B3F5806F34D0BF
:109030001B4A136823F4C06343F480631360002069
:109040007047174B1B6803F4C063B3F5007F20D053
:10905000134A136823F4C06343F400731360114B85
:109060001B68322202FB03F30F4AA2FB03239B0C73
:10907000013300E0013B0A4A526912F4806F01D0CB
:10908000002BF7D1064B5B6913F4806F03D10020EE
:10909000704700207047032070470020704700BFD2
:1090A000007000400C00002083DE1B4307285DD8C1
:1090B000DFE800F004121E28323C46502C4B1A6A9E
:1090C00021F4804002431A625A6A21F4204122EAC4
:1090D00001025A6200207047254B9A6A0A439A623D
:1090E000DA6A21F0100122EA0102DA6200207047F8
:1090F0001F4B1A6B0A431A635A6B22EA01025A6326
:10910000002070471A4B9A6B0A439A63DA6B22EA83
:109110000102DA6300207047154B1A6C0A431A6487
:109120005A6C22EA01025A6400207047104B9A6C74
:109130000A439A64DA6C22EA0102DA64002070477A
:109140000B4B1A6D0A431A655A6D22EA01025A65E1
:1091500000207047064B9A6D01F003010A439A659F
:10916000DA6D22EA0102DA650020704701207047BB
:1091700000700040024A936843F480639360704734
:1091800000700040002807DB00F01F0240090123A7
:109190009340024A42F82030704700BF00E100E0EF
:1091A000002808DB0901C9B200F1604000F5614008
:1091B00080F80013704700F00F000901C9B2014B9D
:1091C0001954704714ED00E000B500F00700C0F13D
:1091D000070CBCF1040F28BF4FF0040C031D062B35
:1091E0000FD9C31E4FF0FF3E0EFA0CF021EA00012A
:1091F00099400EFA03FE22EA0E0241EA02005DF8EF
:1092000004FB0023EEE70000074AD36823F4E06381
:109210001B041B0C000200F4E060034343F0BF6337
:1092200043F40033D360704700ED00E010B504460E
:10923000054BD868C0F30220FFF7C6FF0146204661
:10924000FFF7AEFF10BD00BF00ED00E008B5FFF76F
:1092500099FF08BD0138B0F1807F0BD24FF0E023B9
:109260005861054AF02182F82310002098610722F6
:109270001A6170470120704700ED00E003689A69A9
:1092800012F0020F01D000229A6203689A6912F06C
:10929000010F03D19A6942F001029A61704710B43C
:1092A000019CC1F3090141EA02411943214321F024
:1092B000004102685368640D04F4806444F07F74D4
:1092C00044F4583444F47F7444F0030423EA040360
:1092D0000B4353605DF8044B70472DE9F0410446A1
:1092E00003689E6916F010067CD00D469046102249
:1092F000DA61002637462368986910F0200F30D1D4
:109300007FBBB5F1FF3FF6D0FEF7DAFAA0EB08001D
:10931000A84201D8002DEED121684B6803F48043A8
:1093200094F84220D2B2886910F4004F02D00BB9F1
:10933000202A0ED123689B6913F0200FDBD1FEF7A2
:10934000BFFAA0EB08001928F4D946F0200601273F
:10935000D1E74B6843F480434B60FEF7B1FA804697
:10936000E8E70FB92022DA6146F0040601252268F9
:10937000936913F4807F05D046F001064FF48071A5
:10938000D161012513F4806F06D046F008062268EB
:109390004FF48061D161012513F4007F24D046F0A1
:1093A000020623684FF40072DA6101252046FFF7B8
:1093B00065FF2268536823F0FF7323F48B3323F493
:1093C000FF7323F001035360636C33436364202312
:1093D00084F84130002384F8423084F84030284635
:1093E000BDE8F0810025C2E7002DF8D0DEE770B5BA
:1093F00004460D46164623689B6913F0020F22D1DE
:10940000324629462046FFF768FFF0B9B5F1FF3F25
:10941000F1D0FEF755FA801BA84201D8002DEAD101
:1094200023689B6913F0020FE5D1636C43F02003BE
:109430006364202384F84130002384F8423084F8A8
:109440004030012000E0002070BD0120FCE72DE944
:10945000F04105460F46164698462C68A46937EA3F
:1094600004040CBF01240024B44222D1B8F1FF3F10
:10947000F3D0FEF725FA069BC01A404502D8B8F192
:10948000000FEAD12B689B6937EA03030CBF012365
:109490000023B342E1D16B6C43F020036B642023C3
:1094A00085F84130002385F8423085F840300120AE
:1094B00000E00020BDE8F0812DE9F04182B00446D3
:1094C00090461D46089E099F194B00934FF08073EC
:1094D000EAB2FFF7E4FE3A4631462046FFF787FF3F
:1094E000F8B9012D0ED123685FFA88F29A620097CD
:1094F0003346002280212046FFF7A9FFA8B902B019
:10950000BDE8F08123684FEA18229A623A46314654
:109510002046FFF76CFF30B923685FFA88F29A6241
:10952000E5E70120EBE70120E9E70120E7E700BFDD
:10953000002000802DE9F04182B0044690461D468F
:10954000089E099F184B00930023EAB2FFF7A7FE7D
:109550003A4631462046FFF74AFFF8B9012D0ED1B1
:1095600023685FFA88F29A6200973346002240210E
:109570002046FFF76CFFA8B902B0BDE8F081236870
:109580004FEA18229A623A4631462046FFF72FFFEB
:1095900030B923685FFA88F29A62E5E70120EBE7C9
:1095A0000120E9E70120E7E70020008070B50446CC
:1095B0000D46164604E023689B6913F0200F12D075
:1095C00023689B6913F0200F1BD1324629462046A1
:1095D000FFF783FEB8B9FEF773F9801BA842EAD8FB
:1095E000002DEDD1E7E7636C43F020036364202393
:1095F00084F84130002384F8423084F84030012060
:1096000000E0002070BD0120FCE700285FD010B50D
:10961000044690F84130002B48D0242384F8413090
:109620002268136823F0010313606368226823F043
:10963000706313612268936823F400439360E368C6
:10964000012B38D0A368226843F404439360E36895
:10965000022B36D02268536823F4006353602268DB
:10966000536843F0007343F4004353602268D368A7
:1096700023F40043D360236962691343A16922681C
:1096800043EA0123D360E369216A22680B43136034
:109690002268136843F001031360002060642023F4
:1096A00084F84130206384F8420010BD80F84030D7
:1096B000FDF71EF8B1E7A368226843F40043936006
:1096C000C5E72268536843F400635360C7E701208D
:1096D0007047A8B110B50446242380F841300268D1
:1096E000136823F001031360FDF77CF80020606429
:1096F00084F84100206384F8420084F8400010BDE3
:10970000012070472DE9F04F83B00E46BDF834A01C
:109710000E9D90F84110C9B2202940F0BB8004464C
:10972000904699460C9BCBB1BAF1000F16D090F839
:109730004030012B00F0B2804FF0010B80F840B0B8
:10974000FEF7BEF80746009019235A464FF4004131
:109750002046FFF77CFE30B101209CE04FF40073FF
:109760006364012097E0212384F84130402384F88A
:109770004230002363640C9A6262A4F82AA06363F7
:10978000019700954B46424631462046FFF794FE2E
:1097900070B9638D9BB2FF2B0FD9FF222285002366
:1097A00000934FF0807331462046FFF778FD21E0AB
:1097B000002384F8403058466DE0628D92B22285D5
:1097C000002300934FF00073D2B231462046FFF7DA
:1097D00066FD0FE0628D92B22285002300934FF068
:1097E0000073D2B231462046FFF759FD638D9BB21C
:1097F000002B33D03A4629462046FFF7F8FD0028D3
:109800004ED1626A236812789A62636A0133636296
:10981000638D9BB2013B9BB26385238D013B9BB261
:109820002385628D92B2002AE0D0002BDED1009712
:109830002B46002280212046FFF709FE90BB638D56
:109840009BB2FF2BC6D9FF222285002300934FF045
:10985000807331462046FFF722FDC7E73A46294686
:109860002046FFF7A3FEF8B923682022DA612168B9
:109870004B6823F0FF7323F48B3323F4FF7323F03F
:1098800001034B6084F84120002384F8423084F8BF
:10989000403000E0022003B0BDE8F08F0220FAE77C
:1098A0000120F8E70120F6E70120F4E72DE9F04F69
:1098B00083B00E46BDF834A00E9D90F84110C9B299
:1098C000202940F0BC800446904699460C9BCBB1C1
:1098D000BAF1000F16D090F84030012B00F0B380A1
:1098E0004FF0010B80F840B0FDF7EAFF074600900B
:1098F00019235A464FF400412046FFF7A8FD30B126
:1099000001209DE04FF400736364012098E022235E
:1099100084F84130402384F84230002363640C9A79
:109920006262A4F82AA06363019700954B46424601
:1099300031462046FFF7FEFD70B9638D9BB2FF2BC9
:109940000FD9FF222285444B00934FF0807331469C
:109950002046FFF7A4FC21E0002384F8403058465D
:109960006EE0628D92B222853B4B00934FF0007304
:10997000D2B231462046FFF792FC0FE0628D92B2E0
:109980002285002300934FF00073D2B23146204667
:10999000FFF785FC638D9BB2002B34D000972B46DC
:1099A000002204212046FFF752FD00284DD12368F4
:1099B0005A6A636A1A70636A01336362228D013ADC
:1099C00092B22285638D9BB2013B9BB26385638D0E
:1099D0009BB2002BDED0002ADCD100972B468021E1
:1099E0002046FFF734FD90BB638D9BB2FF2BC5D99A
:1099F000FF222285002300934FF0807331462046DA
:109A0000FFF74DFCC6E73A4629462046FFF7CEFD54
:109A1000F8B923682022DA6121684B6823F0FF73CC
:109A200023F48B3323F4FF7323F001034B6084F89A
:109A30004120002384F8423084F8403000E00220C6
:109A400003B0BDE8F08F0220FAE70120F8E701201B
:109A5000F6E70120F4E700BF002400802DE9F04381
:109A600085B01D460023039390F84130DBB2202BD4
:109A700040F0A08006468946904603689B6913F42F
:109A8000004F40F0998090F84030012B00F0968014
:109A9000012380F84030242380F8413000234364C0
:109AA00044E0C9F3090343F0007343F4005346E074
:109AB00033689C69C4F340149B69C3F30013C4B9B1
:109AC000BBB9B5F1FF3FF3D0FDF7FAFEC01BA842CA
:109AD00001D8002DECD1202386F84130736C43F07F
:109AE00020037364002386F84030012005B0BDE8F0
:109AF000F08333689B6913F0100F2DD000972B462D
:109B0000002220213046FFF7A2FC00285AD13368FA
:109B10001022DA6133682022DA61039B43452CD09E
:109B2000039B01330393039B434537D2F368012B17
:109B3000B7D0C9F3090343F0007343F420533268EC
:109B40005360FDF7BDFE074633689C69C4F34014BB
:109B50009B69C3F30013B2E700972B460022202134
:109B60003046FFF774FC58BB32682023D36186F877
:109B70004130002386F84030B8E73268536843F438
:109B80008043536000972B46002220213046FFF788
:109B90005EFCC8B933682022DA61C1E7202386F869
:109BA0004130736C43F020037364002386F8403027
:109BB00001209BE7022099E7022097E7022095E722
:109BC000012093E7012091E701208FE7034690F8F9
:109BD0004120D2B2202A23D190F84020012A21D05E
:109BE000012280F84020242280F841200068026889
:109BF00022F0010202601868026822F480520260BA
:109C0000186802681143016019680A6842F001028D
:109C10000A60202283F84120002083F8400070472A
:109C20000220704702207047034690F84120D2B2CC
:109C3000202A21D190F84020012A1FD0012280F84B
:109C40004020242280F841200068026822F00102AE
:109C500002601868026822F4706242EA012202601F
:109C600019680A6842F001020A60202283F8412044
:109C7000002083F8400070470220704702207047A0
:109C800084460C4B1B680C4AA2FB03239B0B4FF42E
:109C90007A7202FB03F3002006E0DCF80020126871
:109CA00031EA020204D01BB1013BF6D10320F4E7F4
:109CB000704700BF0C0000205917B7D1002854D0BE
:109CC000F8B5044690F83630002B44D0022384F8CF
:109CD00036302568EB686168012903D0A26AB2F5C5
:109CE000000F01D123F01E0362694FF6FF7082421C
:109CF00003D023F4604323F0C0031D481840A36839
:109D00000B43266A3343666A3343A66A33430343ED
:109D100019B9E069276938430343012902D0B6F530
:109D2000000F03D1E168206901430B434FF6FF7137
:109D30008A4204D0A1690A43E1690A431343EB60F4
:109D400023680C4A93420BD0E26A1A62012384F81A
:109D500036300020F8BD80F83530FCF777FDB5E7E8
:109D6000E26A216B0A431A62F0E70120704700BFE4
:109D7000FEF119FF007C004038B504460B46022274
:109D800080F836200568E96821F00601C2680A43B8
:109D9000EA600168CA6842F08072CA6001680A69B4
:109DA00042F001020A610268102151600268936169
:109DB000FFF766FF032808D02268136943F0040305
:109DC0001361012384F83630002038BD0368D86958
:109DD0007047000030B4026A036A23F00103036293
:109DE0004468836923F4803323F073030D681D43B3
:109DF00022F002028B6813431C4A90420FD002F5F6
:109E0000006290420BD002F54062904207D002F50A
:109E10008062904203D002F58062904205D123F027
:109E20000803CA681A4322F00403104A90420FD074
:109E300002F5006290420BD002F54062904207D0DA
:109E400002F58062904203D002F58062904205D113
:109E500024F440744A6922438C6914434460856148
:109E60004A684263036230BC704700BF002C014067
:109E700030B4036A026A22F4807202624468C269E2
:109E800022F4803222F073020D68154323F400732C
:109E90008A6843EA0223184A904203D002F500621E
:109EA000904206D123F40063CA6843EA022323F4F4
:109EB0008063114A90420FD002F5006290420BD0AD
:109EC00002F54062904207D002F58062904203D0D2
:109ED00002F58062904207D124F440524C6942EA74
:109EE00004128C6942EA04144460C5614A68C26382
:109EF000036230BC704700BF002C014030B4036ADD
:109F0000026A22F4805202624468C26922F08072BE
:109F100022F4E6420D6842EA052223F400538D68DC
:109F200043EA05330F4DA8420FD005F50065A8425E
:109F30000BD005F54065A84207D005F58065A8421D
:109F400003D005F58065A84204D124F480444D690E
:109F500044EA85144460C2614A680264036230BC0A
:109F6000704700BF002C014030B4036A026A22F43B
:109F7000803202624468426D22F4803222F0700224
:109F80000D68154323F400338A6843EA02430F4AFD
:109F900090420FD002F5006290420BD002F5406271
:109FA000904207D002F58062904203D002F58062B1
:109FB000904204D124F480344A6944EA0224446083
:109FC00045654A688265036230BC7047002C0140D9
:109FD00030B4036A026A22F4801202624468426D5D
:109FE00022F0807222F4E0420D6842EA052223F456
:109FF00000138D6843EA05530F4DA8420FD005F5B5
:10A000000065A8420BD005F54065A84207D005F5CC
:10A010008065A84203D005F58065A84204D124F4E8
:10A0200080244D6944EA8524446042654A68C265DB
:10A03000036230BC704700BF002C014090F83D30F7
:10A04000DBB2012B36D1022380F83D300268D368A1
:10A0500043F00103D3600368194A93421CD0B3F163
:10A06000804F19D0A2F59432934215D002F5806248
:10A07000934211D002F5806293420DD002F59432E2
:10A08000934209D002F54062934205D01A6842F02B
:10A0900001021A600020704799680A4A0A40062A9D
:10A0A0000AD0B2F5803F09D01A6842F001021A6066
:10A0B0000020704701207047002070470020704743
:10A0C000002C01400700010070477047704770473F
:10A0D00070B504460368DE681D6915F0020F10D0E4
:10A0E00016F0020F0DD06FF002021A610123037700
:10A0F00003689B6913F0030F64D0FFF7E6FF0023AA
:10A10000237715F0040F12D016F0040F0FD0236838
:10A110006FF004021A610223237723689B6913F40A
:10A12000407F55D02046FFF7D0FF0023237715F05E
:10A13000080F12D016F0080F0FD023686FF0080236
:10A140001A61042323772368DB6913F0030F46D0D9
:10A150002046FFF7BAFF0023237715F0100F12D027
:10A1600016F0100F0FD023686FF010021A61082349
:10A1700023772368DB6913F4407F37D02046FFF74D
:10A18000A4FF0023237715F0010F02D016F0010F72
:10A1900033D115F0800F02D016F0800F35D115F4B1
:10A1A000807F02D016F0800F37D115F0400F02D01B
:10A1B00016F0400F39D115F0200F02D016F0200F05
:10A1C0003BD170BDFFF780FF2046FFF77FFF96E78A
:10A1D0002046FFF779FF2046FFF778FFA5E72046E6
:10A1E000FFF772FF2046FFF771FFB4E72046FFF745
:10A1F0006BFF2046FFF76AFFC3E723686FF0010299
:10A200001A61204603F0B6FEC3E723686FF08002B0
:10A210001A61204600F037FCC1E723686FF48072B2
:10A220001A61204600F030FCBFE723686FF040025F
:10A230001A612046FFF74BFFBDE723686FF020024D
:10A240001A61204600F01EFCBBE700000368304A9C
:10A25000904212D0B0F1804F0FD0A2F594329042CC
:10A260000BD002F58062904207D002F580629042E6
:10A2700003D002F59432904203D123F070034A6870
:10A280001343234A90421ED0B0F1804F1BD0A2F559
:10A290009432904217D002F58062904213D002F5BA
:10A2A000806290420FD002F5943290420BD002F5BA
:10A2B0004062904207D002F58062904203D002F5DE
:10A2C0008062904203D123F44073CA68134323F0A1
:10A2D00080034A69134303608B68C3620B6883621F
:10A2E0000B4B98420FD003F5006398420BD003F557
:10A2F0004063984207D003F58063984203D003F58A
:10A300008063984201D10B69036301234361704765
:10A31000002C014060B310B5044690F83D3013B3F3
:10A32000022384F83D30214651F8040BFFF78EFFDD
:10A33000012384F8483084F83E3084F83F3084F8B4
:10A34000403084F8413084F8423084F8433084F857
:10A35000443084F8453084F8463084F8473084F837
:10A360003D30002010BD80F83C30FCF777FBD7E78C
:10A370000120704760B310B5044690F83D3013B328
:10A38000022384F83D30214651F8040BFFF75EFFAD
:10A39000012384F8483084F83E3084F83F3084F854
:10A3A000403084F8413084F8423084F8433084F8F7
:10A3B000443084F8453084F8463084F8473084F8D7
:10A3C0003D30002010BD80F83C30FCF711FBD7E792
:10A3D00001207047002853D0F8B50D46044690F888
:10A3E0003D30002B47D0022384F83D30226893682B
:10A3F00023F4A03323F007039360214651F8040BA4
:10A40000FFF724FF21688B688A690E6A2868184361
:10A4100022F4407222F00302AB68AF6943EA0723DB
:10A42000134323F47C4323F0FC03EA68EF6942EA18
:10A4300007221A432B6A1B032F6943EA07131343AE
:10A4400026F0AA066A686D6942EA051232438860FE
:10A4500021688B6123681A62012384F8483084F8EC
:10A460003E3084F83F3084F8443084F8453084F836
:10A470003D300020F8BD80F83C30FCF72BFAB2E705
:10A480000120704730B4036A026A22F010020262AF
:10A490004468826922F0807222F4E6420D6842EA42
:10A4A000052223F020038D6843EA0513174DA842C7
:10A4B00003D005F50065A84206D123F08003CD68DE
:10A4C00043EA051323F04003104DA8420FD005F5D1
:10A4D0000065A8420BD005F54065A84207D005F5F8
:10A4E0008065A84203D005F58065A84207D124F411
:10A4F000406C4C694CEA840C8C694CEA84044460DE
:10A5000082614A688263036230BC7047002C01405C
:10A5100038B590F83C30012B00F0958004460D468C
:10A52000012380F83C30142A00F28880DFE802F032
:10A530000B8686861F86868634868686488686862D
:10A540005D86868671000068FFF744FC2268936987
:10A5500043F0080393612268936923F00403936135
:10A560002268936929690B439361002067E00068C2
:10A57000FFF788FF2268936943F4006393612268C0
:10A58000936923F48063936122689369296943EA9C
:10A5900001239361002052E00068FFF769FC226804
:10A5A000D36943F00803D3612268D36923F004031D
:10A5B000D3612268D36929690B43D36100203EE04F
:10A5C0000068FFF79BFC2268D36943F40063D36102
:10A5D0002268D36923F48063D3612268D36929692F
:10A5E00043EA0123D361002029E00068FFF7BCFCA7
:10A5F0002268536D43F0080353652268536D23F0BE
:10A60000040353652268536D29690B435365002089
:10A6100015E00068FFF7DCFC2268536D43F400632B
:10A6200053652268536D23F4806353652268536D2C
:10A63000296943EA01235365002000E0012000233B
:10A6400084F83C3038BD0220FCE701F01F014FF0D8
:10A65000010C0CFA01FC036A23EA0C030362036A8F
:10A660008A4013430362704710B5044610293CD852
:10A67000DFE801F0093B3B3B1F3B3B3B263B3B3BC1
:10A680002D3B3B3B340090F83E30DBB2013B18BF22
:10A690000123002B40F0928010297DD8DFE801F0E3
:10A6A0002C7C7C7C6C7C7C7C707C7C7C747C7C7C5E
:10A6B000780090F83F30DBB2013B18BF0123E8E798
:10A6C00090F84030DBB2013B18BF0123E1E790F87E
:10A6D0004130DBB2013B18BF0123DAE790F842308A
:10A6E000DBB2013B18BF0123D3E790F84330DBB264
:10A6F000013B18BF0123CCE7022384F83E3001223E
:10A700002068FFF7A2FF23682F4A93420FD002F57B
:10A71000006293420BD002F54062934207D002F5EB
:10A720008062934203D002F58062934203D15A6C57
:10A7300042F400425A642368234A934230D0B3F172
:10A74000804F2DD0A2F59432934229D002F5806239
:10A75000934225D002F58062934221D002F59432D3
:10A7600093421DD002F54062934219D01A6842F01C
:10A7700001021A60002022E0022384F83F30BEE785
:10A78000022384F84030BAE7022384F84130B6E768
:10A79000022384F84230B2E7022384F84330AEE764
:10A7A00099680A4A0A40062A0AD0B2F5803F09D0C1
:10A7B0001A6842F001021A60002000E0012010BD7A
:10A7C0000020FCE70020FAE7002C01400700010010
:10A7D00038B504460D4600220068FFF736FF2368AF
:10A7E0002A4A93420FD002F5006293420BD002F541
:10A7F0004062934207D002F58062934203D002F593
:10A80000806293420DD1196A41F21112114208D1AE
:10A81000196A40F24442114203D15A6C22F40042B8
:10A820005A642368196A41F21112114208D1196A57
:10A8300040F24442114203D11A6822F001021A6028
:10A84000102D1FD8DFE805F0091E1E1E0E1E1E1E4D
:10A85000121E1E1E161E1E1E1A00012384F83E30F4
:10A86000002038BD012384F83F30F9E7012384F844
:10A870004030F5E7012384F84130F1E7012384F803
:10A880004230EDE7012384F84330E9E7002C014032
:10A8900038B5044690F83E00C0B294F83F3094F8C2
:10A8A0004420D2B294F845C00D46B1B9012849D12F
:10A8B000012A48D1022384F83E3084F844307DB325
:10A8C000042D39D0012200212068FFF7BEFE0122AD
:10A8D00004212068FFF7B9FE27E0DBB25FFA8CFCA9
:10A8E000042912D0012833D1012B2CD1012A31D1D6
:10A8F000BCF1010F30D1022384F83E3084F83F30A0
:10A9000084F8443084F84530D9E7012B1CD1BCF1E0
:10A91000010F1BD1022384F83F3084F84530CEE785
:10A92000012200212068FFF790FE2268136843F09F
:10A9300001031360002006E0012204212068FFF7D4
:10A9400084FEF2E7012038BD0120FCE71846FAE753
:10A950000120F8E71846F6E71046F4E790F83C20A7
:10A96000012A42D030B40346012280F83C20022262
:10A9700080F83D200068426884681D4DA84203D0DD
:10A9800005F50065A84203D122F470024D682A4300
:10A9900022F070020D682A4342601A68144882420D
:10A9A00016D0B2F1804F13D0A0F5943082420FD070
:10A9B00000F5806082420BD000F58060824207D0B3
:10A9C00000F59430824203D000F54060824204D109
:10A9D00024F08004896821439160012283F83D209E
:10A9E000002083F83C0030BC70470220704700BF55
:10A9F000002C014090F83C30012B3ED010B40246B0
:10AA0000012380F83C30CB6823F44073886803430B
:10AA100023F480634868034323F400630868034316
:10AA200023F480530869034323F400534869034324
:10AA300023F48043886A034323F47023886943EA3C
:10AA4000004310680E4CA04203D004F50064A042FD
:10AA50000CD123F470034C6A43EA045323F080734F
:10AA6000CC69234323F00073096A0B43436400203D
:10AA700082F83C005DF8044B70470220704700BF2D
:10AA8000002C0140704770477047026852E8003F51
:10AA900023F0C00342E800310029F6D12023C36728
:10AAA0007047026852E8003F23F4907342E8003197
:10AAB0000029F6D1026802F1080353E8003F23F0B1
:10AAC0000103083242E800310029F3D1036E012B63
:10AAD00006D02023C0F880300023036683667047C9
:10AAE000026852E8003F23F0100342E800310029D9
:10AAF000F6D1EEE7704708B5026852E8003F23F050
:10AB0000400342E800310029F6D12023C367002327
:10AB1000C366FFF7EFFF08BD70477047704738B551
:10AB2000846AE26FD4F8805023689B6813F0800F2A
:10AB300001D0212A10D023689B6813F0400F01D068
:10AB4000222D10D0D4F8843043F01003C4F88430A0
:10AB50002046FFF7E3FF38BD0023A4F8523020461B
:10AB6000FFF793FFE7E70023A4F85A302046FFF7EA
:10AB700098FFE7E708B5806A0023A0F85A30A0F8EC
:10AB80005230FFF7CBFF08BD70B504460268D369A9
:10AB90001168906840F60F0C13EA0C0F0AD113F0FD
:10ABA000200F0DD011F0200F0AD0A36E0BB320465A
:10ABB00098471EE010F001051CD1AC4E314219D16E
:10ABC000256E012D00F0A48013F4801F03D010F433
:10ABD000800F40F0388113F0800F03D011F0800F08
:10ABE00040F0388113F0400F03D011F0400F40F0D7
:10ABF000388170BD13F0010F09D011F4807F06D0A9
:10AC000001201062D4F884200243C4F8842013F099
:10AC1000020F09D045B1226802201062D4F88420C6
:10AC200042F00402C4F8842013F0040F09D045B1A7
:10AC3000226804201062D4F8842042F00202C4F892
:10AC4000842013F0080F0BD011F0200F00D13DB17C
:10AC5000226808201062D4F884200243C4F88420BB
:10AC600013F4006F0CD011F0806F09D022684FF4FC
:10AC700000601062D4F8842042F02002C4F88420DE
:10AC8000D4F88420002AB4D013F0200F06D011F09D
:10AC9000200F03D0A36E0BB120469847D4F8842030
:10ACA00023689B6813F0400F02D112F0280F28D0C0
:10ACB0002046FFF7F6FE23689B6813F0400F1CD078
:10ACC000226802F1080353E8003F23F040030832F2
:10ACD00042E800310029F3D1636F53B1644A9A63AB
:10ACE000606FFEF7DDF8002883D0606F836B9847B4
:10ACF0007FE72046FFF712FF7BE72046FFF70EFFB6
:10AD000077E72046FFF70AFF0023C4F8843070E796
:10AD100013F0100F3FF458AF11F0100F3FF454AF81
:10AD20001023136223689B6813F0400F51D0626FA9
:10AD300013685B689BB2002B3FF45BAFB4F858100C
:10AD400099427FF656AFA4F85A3013681B6813F087
:10AD5000200F31D1226852E8003F23F4807342E88B
:10AD600000310029F6D1226802F1080353E8003FC0
:10AD700023F00103083242E800310029F3D12268B0
:10AD800002F1080353E8003F23F04003083242E891
:10AD900000310029F3D12023C4F88030002323663A
:10ADA000226852E8003F23F0100342E800310029F6
:10ADB000F6D1606FFEF74FF802236366B4F85810BF
:10ADC000B4F85A309BB2C91A89B2204603F0BAF8D7
:10ADD0000FE7B4F85810B4F85A309BB2C91A89B2C8
:10ADE000B4F85A309BB2002B3FF403AF00293FF474
:10ADF00000AF226852E8003F23F4907342E800302D
:10AE00000028F6D1226802F1080353E8003F23F03E
:10AE10000103083242E800300028F3D12023C4F8AF
:10AE2000803000232366A366226852E8003F23F0A7
:10AE3000100342E800300028F6D102236366204662
:10AE400003F080F8D5E64FF480131362204600F03B
:10AE5000FDFBCEE6E36E002B3FF4CBAE20469847D9
:10AE6000C7E62046FFF747FEC3E600BF2001000407
:10AE700075AB000808B5806A01234366036E012B99
:10AE800002D0FFF74AFE08BDB0F85810490803F099
:10AE900059F8F8E708B50346806A1B681B6813F089
:10AEA000200F29D10023A0F85A30026852E8003F51
:10AEB00023F4807342E800310029F6D1026802F1E0
:10AEC000080353E8003F23F00103083242E8003151
:10AED0000029F3D1026802F1080353E8003F23F090
:10AEE0004003083242E800310029F3D12023C0F8A2
:10AEF0008030036E012B07D000234366036E012BC5
:10AF00000CD0FFF709FE08BD026852E8003F23F0AD
:10AF1000100342E800310029F6D1EDE7B0F85810EF
:10AF200003F010F8EFE7000010B5044683680269EB
:10AF3000134342691343C2691343016808688F4A87
:10AF400002401A430A602268536823F44053E168C0
:10AF50000B435360A1692268894B9A4201D0236A4E
:10AF60001943936823F430630B4393602368854A45
:10AF7000934226D0844A934237D0844A93424DD09C
:10AF8000834A93425DD0834A93426CD07C4A934279
:10AF90007ED010227A498B4200F0B380E069B0F590
:10AFA000004F00F0E080082A00F24B81DFE812F049
:10AFB0001A013001180149013301490149014901D0
:10AFC000360102F55842D2F8882002F00302032A23
:10AFD00009D8DFE802F0020472060122DAE704224F
:10AFE000D8E70822D6E71022D4E702F5E632D2F8F5
:10AFF000882002F00C020C2A0ED8DFE802F0070DC0
:10B000000D0D090D0D0D600D0D0D0B000022C1E79A
:10B010000422BFE70822BDE71022BBE702F5E432B5
:10B02000D2F8882002F03002202A4AD005D8002A1F
:10B0300049D0102A49D10422ACE7302A47D108224E
:10B04000A8E702F5E232D2F8882002F0C002802A96
:10B050003FD004D8FAB3402A3FD104229AE7C02A4D
:10B060003DD1082296E702F5E032D2F8882002F4BA
:10B070004072B2F5007F34D005D8A2B3B2F5807F1C
:10B0800033D1042286E7B2F5407F30D1082281E730
:10B0900002F5C832D2F8882002F44062B2F5006F9F
:10B0A00027D005D83AB3B2F5806F26D1042271E7D4
:10B0B000B2F5406F23D108226CE702226AE7022230
:10B0C00068E7022266E7002264E7102262E71022A6
:10B0D00060E702225EE700225CE710225AE71022B6
:10B0E00058E7022256E7002254E7102252E71022C6
:10B0F00050E702224EE700224CE710224AE71022D6
:10B1000048E7082A00F28D80DFE802F0088B2B8BDD
:10B11000288B8B8B05004FF4004004E0FDF764F8AA
:10B12000002800F08080626802EB420383427CD8F2
:10B13000B0EB023F7BD8010E00025308C0184FF05D
:10B14000000341F10001FBF709F9A0F54072124B31
:10B150009A426ED82368D860002055E0FCF712FCB4
:10B16000DEE70E48DFE7082A65D8DFE802F019338A
:10B170000564366464641D00084815E0F369FFEF58
:10B18000008000400038014000440040004800407A
:10B19000004C004000500040FFFC0F000024F40071
:10B1A000FDF722F8002848D06268530803EB4003FB
:10B1B000B3FBF2F3A3F110014FF6EF7291423ED8C8
:10B1C0009AB222F00F02C3F3420313432268D36002
:10B1D000002019E0FDF71AF8E4E7FCF7D3FBE1E7FC
:10B1E0001B4802E0FDF700F868B3636800EB53000A
:10B1F000B0FBF3F0A0F110024FF6EF739A4224D89F
:10B20000236880B2D86000200023A366E36610BDE7
:10B21000FCF7FCFFE8E7FCF7B5FBE5E74FF400407F
:10B22000E3E70120F0E70020EEE70120ECE7012052
:10B23000EAE70120E8E70120E6E70020E4E7012053
:10B24000E2E70120E0E70020DEE70120DCE700BFC5
:10B250000024F400436A13F0080F06D00268536814
:10B2600023F40043416B0B435360436A13F0010F17
:10B2700006D00268536823F40033816A0B4353609D
:10B28000436A13F0020F06D00268536823F4803338
:10B29000C16A0B435360436A13F0040F06D002687F
:10B2A000536823F48023016B0B435360436A13F00C
:10B2B000100F06D00268936823F48053816B0B4310
:10B2C0009360436A13F0200F06D00268936823F45A
:10B2D0000053C16B0B439360436A13F0400F0AD0D5
